:0400000046EF0DF0CA
:100800000050726F62616E646F206C6564732E2E8F
:100810002E006F6B203F2042544E31203A2042542C
:100820004E3200496E697420746573742042757A83
:100830007A65720052656C6179732066756E633FEC
:100840002E2E2E005075736820616E7920627574AB
:10085000746F6E005465737420636F6D706C657493
:1008600061646F0025642C2025642C2025642C20D5
:10087000256400416C6C20627574746F6E73206F18
:100880006B007374617274696E67207465737400B1
:1008900042757A7A6572206269656E210052656CD4
:1008A000617973206269656E2100427574746F6EA0
:1008B0007320746573740042757A7A6572206D6175
:1008C0006C210052656C617973206D616C2100466A
:1008D000656C6963696461646573006F6620747236
:1008E00061696E657200496E202E2E2E0000BCECF0
:1008F0000DF081EC0DF017EC0CF0CDEC0DF0010ECD
:100900000001666FB3EF07F0CDEC0DF0010E046E41
:10091000010E53EC0CF0820E056E080E066E9BEC79
:100920000BF0010E046E020E53EC0CF0DB0E056EA4
:10093000080E066E9BEC0BF0100E5B6E390E5A6EB5
:100940000E0EE82EFED75A2EFCD75B2EFAD7CDEC32
:100950000DF0010E046E010E53EC0CF0E60E056E68
:10096000080E066E9BEC0BF0000E0001C96F030E23
:10097000C86F000ECB6F010ECA6F010E046E010E20
:1009800053EC0CF0E60E056E080E066E9BEC0BF0B9
:10099000CAC004F0020E53EC0CF0B40E00019B6FC1
:1009A000000E9C6F700E9D6F080E9E6FC8C09FF06A
:1009B000C9C0A0F0B4EC0CF0B40E056E000E066ECB
:1009C0009BEC0BF0030E5B6E080E5A6E770EE82E52
:1009D000FED75A2EFCD75B2EFAD700F0CDEC0DF0E7
:1009E0000001CA4BCB2BCBBFFFEF04F0CB5109E189
:1009F000110ECA5DD8A0FFEF04F001EF05F0BDEFC6
:100A000004F0C807D8A0C907C9BF11EF05F0C95144
:100A100006E1C805D8B00FEF05F011EF05F0B9EF0A
:100A200004F0020E666FCDEC0DF0010E046E010EA7
:100A300053EC0CF0AA0E056E080E066E9BEC0BF044
:100A4000010E046E020E53EC0CF0440E056E080EFF
:100A5000066E9BEC0BF0100E5B6E390E5A6E0E0E8E
:100A6000E82EFED75A2EFCD75B2EFAD7B3EF07F04D
:100A700081B03DEF05F03FEF05F051EF05F01A0EA4
:100A80005A6EF80EE82EFED75A2EFCD700D081A061
:100A90004CEF05F04EEF05F047EF05F0010E0001B9
:100AA000656F81B256EF05F058EF05F06AEF05F07B
:100AB0001A0E5A6EF80EE82EFED75A2EFCD700D02A
:100AC00081A265EF05F067EF05F060EF05F0010E1C
:100AD0000001646F81B46FEF05F071EF05F083EFF3
:100AE00005F01A0E5A6EF80EE82EFED75A2EFCD7D5
:100AF00000D081A27EEF05F080EF05F079EF05F0E0
:100B0000010E0001636F81B688EF05F08AEF05F0F2
:100B10009CEF05F01A0E5A6EF80EE82EFED75A2EEC
:100B2000FCD700D081A297EF05F099EF05F092EF86
:100B300005F0010E0001626F870E9B6F000E9C6F27
:100B4000640E9D6F080E9E6F65C09FF0A06B64C021
:100B5000A1F0A26B63C0A3F0A46B62C0A5F0A66B6A
:100B6000B4EC0CF0CDEC0DF0010E046E020E53EC63
:100B70000CF0870E056E000E066E9BEC0BF000016C
:100B80006551D8B4C6EF05F0C8EF05F0B3EF07F034
:100B90006451D8B4CEEF05F0D0EF05F0B3EF07F015
:100BA0006351D8B4D6EF05F0D8EF05F0B3EF07F0F6
:100BB0006251D8B4DEEF05F0E0EF05F0B3EF07F0D7
:100BC000060E5B6E130E5A6EAE0EE82EFED75A2E30
:100BD000FCD75B2EFAD7CDEC0DF0010E046E010EA2
:100BE00053EC0CF0730E056E080E066E9BEC0BF0CA
:100BF000060E5B6E130E5A6EAE0EE82EFED75A2E00
:100C0000FCD75B2EFAD7030E0001666FCDEC0DF01A
:100C1000010E046E010E53EC0CF0010E056E080E71
:100C2000066E9BEC0BF0A5EC0DF0B3EF07F08C68B3
:100C300081A21DEF06F01FEF06F026EF06F081B44B
:100C400024EF06F026EF06F0B3EF07F0040E666F10
:100C5000CDEC0DF0010E046E010E53EC0CF0340ED1
:100C6000056E080E066E9BEC0BF0A5EC0DF02BEF5D
:100C700005F081B03EEF06F040EF06F070EF06F0B1
:100C80001A0E5A6EF80EE82EFED75A2EFCD700D058
:100C900081A04DEF06F04FEF06F048EF06F08DB063
:100CA00054EF06F057EF06F0010E58EF06F0000E75
:100CB000FF0A5A6E8D505A18FE0B5A188D6E8AB85C
:100CC00064EF06F067EF06F0010E68EF06F0000E25
:100CD000FF0A5A6E5A3A8A505A18EF0B5A188A6EFF
:100CE00081B275EF06F077EF06F0ACEF06F01A0E62
:100CF0005A6EF80EE82EFED75A2EFCD700D081A2ED
:100D000084EF06F086EF06F07FEF06F0CDEC0DF0F5
:100D1000010E046E010E53EC0CF09D0E056E080ED4
:100D2000066E9BEC0BF0010E046E020E53EC0CF001
:100D3000230E056E080E066E9BEC0BF00B0E5B6E21
:100D4000260E5A6E5E0EE82EFED75A2EFCD75B2E6C
:100D5000FAD7050E0001666F81B4B1EF06F0B3EF6C
:100D600006F0B3EF07F01A0E5A6EF80EE82EFED713
:100D70005A2EFCD700D081A2C0EF06F0C2EF06F0D9
:100D8000BBEF06F0CDEC0DF0010E046E010E53EC3E
:100D90000CF0C30E056E080E066E9BEC0BF0010EF8
:100DA000046E020E53EC0CF0230E056E080E066E58
:100DB0009BEC0BF00B0E5B6E260E5A6E5E0EE82E51
:100DC000FED75A2EFCD75B2EFAD7050E0001666FB0
:100DD000B3EF07F0CDEC0DF0010E046E010E53ECF5
:100DE0000CF0340E056E080E066E9BEC0BF081B015
:100DF000FCEF06F0FEEF06F01FEF07F01A0E5A6E3A
:100E0000F80EE82EFED75A2EFCD700D081A00BEFAB
:100E100007F00DEF07F006EF07F08DB412EF07F0C3
:100E200015EF07F0010E16EF07F0000EFF0A5A6EDD
:100E30005A465A468D505A18FB0B5A188D6E81B27D
:100E400024EF07F026EF07F05BEF07F01A0E5A6E5B
:100E5000F80EE82EFED75A2EFCD700D081A233EF31
:100E600007F035EF07F02EEF07F0CDEC0DF0010E97
:100E7000046E010E53EC0CF0900E056E080E066E1B
:100E80009BEC0BF0010E046E020E53EC0CF0230EE3
:100E9000056E080E066E9BEC0BF00B0E5B6E260EBD
:100EA0005A6E5E0EE82EFED75A2EFCD75B2EFAD76E
:100EB000070E0001666F81B460EF07F062EF07F084
:100EC000B3EF07F01A0E5A6EF80EE82EFED75A2E20
:100ED000FCD700D081A26FEF07F071EF07F06AEF47
:100EE00007F0CDEC0DF0010E046E010E53EC0CF08A
:100EF000B70E056E080E066E9BEC0BF0010E046E2D
:100F0000020E53EC0CF0230E056E080E066E9BECE1
:100F10000BF00B0E5B6E260E5A6E5E0EE82EFED7A1
:100F20005A2EFCD75B2EFAD7070E0001666FB3EF7F
:100F300007F0CDEC0DF0010E046E010E53EC0CF039
:100F4000CF0E056E080E066E9BEC0BF0010E046EC4
:100F5000020E53EC0CF0540E056E080E066E9BEC60
:100F60000BF0B3EF07F0000166515A6E5B6A5B50FD
:100F7000000AD8B4BEEF07F0B3EF07F05A50010AE9
:100F8000D8B484EF04F0030AD8B438EF05F0010AAE
:100F9000D8B417EF06F0070AD8B439EF06F0010A03
:100FA000D8B4EAEF06F0020AD8B499EF07F0B3EF2D
:100FB00007F000EF00F01FC035F020C036F021C070
:100FC00037F022C038F023C039F024C03AF025C0F1
:100FD0003BF026C03CF03CBEF0EF07F0F3EF07F02B
:100FE000010EF4EF07F0000E3F6E3F50D8B4FBEF58
:100FF00007F0FDEF07F00DEF08F03C1E3B1E3A1E18
:10100000391E381E371E361E356C000E362237222A
:10101000382239223A223B223C225DBE1AEF08F0E8
:101020005D5006E15C04D8B018EF08F01AEF08F044
:1010300020EF08F0000E326E010E316E24EF08F042
:101040005CC031F05DC032F060C033F061C034F09C
:101050003F50D8B42EEF08F030EF08F047EF08F01B
:101060003306D8A034063F50D8A439EF08F03BEF40
:1010700008F041EF08F0000E306E2B0E2F6E45EF9A
:1010800008F0000E306E2D0E2F6E2FC03FF0000EB8
:101090003E6E1F0E3D6E000E0001866FCCEF08F015
:1010A0003D06D8A03E06670E3D24D96E000E3E20B8
:1010B000DA6E35C001F036C002F037C003F038C038
:1010C00004F039C005F03AC006F03BC007F03CC060
:1010D00008F00A0E096E000E0A6E000E0B6E000E6E
:1010E0000C6E000E0D6E000E0E6E000E0F6E000EDA
:1010F000106EDDEC09F001C027F002C028F003C03B
:1011000029F004C02AF005C02BF006C02CF007C05F
:101110002DF008C02EF027C013F028C014F026ECE4
:101120000DF01350300FDF6E3106D8A032063306B3
:10113000D8A0340635C001F036C002F037C003F045
:1011400038C004F039C005F03AC006F03BC007F0E3
:101150003CC008F00A0E096E000E0A6E000E0B6EFF
:10116000000E0C6E000E0D6E000E0E6E000E0F6E59
:10117000000E106E19EC09F001C035F002C036F017
:1011800003C037F004C038F005C039F006C03AF0AB
:1011900007C03BF008C03CF03EBED7EF08F03E5021
:1011A00008E13D04D8A0D7EF08F0D9EF08F0F5EF3B
:1011B00008F0355036103710381039103A103B10FF
:1011C0003C10D8A4E6EF08F0E8EF08F050EF08F084
:1011D00032BEF5EF08F0325006E13104D8B0F3EF3B
:1011E00008F0F5EF08F050EF08F03F50D8B4FBEFEF
:1011F00008F0FDEF08F008EF09F03D06D8A03E0624
:10120000670E3D24D96E000E3E20DA6E3FC0DFFF30
:101210001DC012F01EC013F0670E3D24146E000EA8
:101220003E20156E33C016F034C017F0DAEC0BF028
:101230001200000E126E10BE22EF09F020EF09F02E
:1012400034EF09F0101E0F1E0E1E0D1E0C1E0B1E7D
:101250000A1E096C000E0A220B220C220D220E22FD
:101260000F221022010E126E08BE3BEF09F039EF7B
:1012700009F04DEF09F0081E071E061E051E041E8C
:10128000031E021E016C000E02220322042205220C
:10129000062207220822010E121A20EE13F0070E72
:1012A000DE6AE806FDE209500A100B100C100D1062
:1012B0000E100F101010D8B460EF09F062EF09F0B3
:1012C000B4EF09F0010E116E70EF09F0D8900936F5
:1012D0000A360B360C360D360E360F361036112AFE
:1012E00010AE75EF09F077EF09F066EF09F0D890CE
:1012F00013361436153616361736183619361A368A
:101300000950015C0A5002580B5003580C50045805
:101310000D5005580E5006580F50075810500858D9
:10132000D8A095EF09F097EF09F0A8EF09F0095060
:10133000015E0A50025A0B50035A0C50045A0D50C9
:10134000055A0E50065A0F50075A1050085A13806B
:10135000D89010320F320E320D320C320B320A326C
:101360000932112E77EF09F01250D8B4BAEF09F014
:10137000BCEF09F0CCEF09F01A1E191E181E171E3B
:10138000161E151E141E136C000E14221522162292
:101390001722182219221A2213C001F014C002F0D9
:1013A00015C003F016C004F017C005F018C006F011
:1013B00019C007F01AC008F01200000E126E08BE25
:1013C000E6EF09F0E4EF09F0F8EF09F0081E071E58
:1013D000061E051E041E031E021E016C000E0222C4
:1013E000032204220522062207220822010E126E81
:1013F00010BEFFEF09F0FDEF09F00FEF0AF0101E2D
:101400000F1E0E1E0D1E0C1E0B1E0A1E096C000E5A
:101410000A220B220C220D220E220F22102209502A
:101420000A100B100C100D100E100F101010D8B465
:101430001CEF0AF01EEF0AF066EF0AF0010E116EC3
:101440002CEF0AF0D89009360A360B360C360D36DA
:101450000E360F361036112A10AE31EF0AF033EF88
:101460000AF022EF0AF00950015C0A5002580B50B2
:1014700003580C5004580D5005580E5006580F5084
:10148000075810500858D8A048EF0AF04AEF0AF061
:101490005AEF0AF00950015E0A50025A0B50035AE3
:1014A0000C50045A0D50055A0E50065A0F50075A48
:1014B0001050085AD89010320F320E320D320C32C2
:1014C0000B320A320932112E33EF0AF01250D8B41F
:1014D0006CEF0AF06EEF0AF07EEF0AF0081E071EAE
:1014E000061E051E041E031E021E016C000E0222B3
:1014F00003220422052206220722082201C001F04D
:1015000002C002F003C003F004C004F005C005F0FF
:1015100006C006F007C007F008C008F0120042C07D
:10152000D9FF43C0DAFFDECFF6FFDDCFF7FF0800BB
:10153000F550250AD8A49FEF0AF0A1EF0AF021EF99
:101540000BF042C0D9FF43C0DAFFDE2A000EDD22D5
:10155000000E0001616F000E606F60C05EF05C689D
:101560005D6842C0D9FF43C0DAFFDECF50F0DDCF67
:1015700051F050C0F6FF51C0F7FF0800F550640A63
:10158000D8B4C5EF0AF0C7EF0AF0D5EF0AF050C0A3
:10159000F6FF51C0F7FF0800F550690AD8A4D3EF51
:1015A0000AF0D5EF0AF018EF0BF044C0D9FF45C0A0
:1015B000DAFFDFCF46F0020EDE26DFCF47F0000E67
:1015C000DD2246C0D9FF47C0DAFFDECF48F0DDCFCD
:1015D00049F0000E49BEFF0E4A6E4B6E4C6E4D6ECA
:1015E0004E6E4F6E010E5024466E000E5120476E17
:1015F00042C0D9FF43C0DAFF46C0DEFF47C0DDFF6F
:1016000040C01DF041C01EF048C01FF049C020F08E
:101610004AC021F04BC022F04CC023F04DC024F052
:101620004EC025F04FC026F0DBEC07F035EF0BF095
:1016300042C0D9FF43C0DAFFDE2A000EDD2235EFBB
:101640000BF042C0D9FF43C0DAFFDECFF6FFDDCF9B
:10165000F7FF0800F550026E036A40C004F041C075
:1016600005F036EC0BF018EF0BF0120004500510EB
:10167000D8B43DEF0BF03FEF0BF048EF0BF0045008
:101680000510D8A446EF0BF048EF0BF04DEF0BF030
:101690000250B1EC0DF09AEF0BF020EE09F004507F
:1016A000D9260550DA22DE50DE10D8B45AEF0BF0FE
:1016B0005CEF0BF077EF0BF020EE09F00450D92629
:1016C0000550DA2210EE03F00450E1260550E22224
:1016D000DE50E65CE650800A0A6EDE50800A0A5848
:1016E000D8B075EF0BF077EF0BF09AEF0BF020EE20
:1016F00003F00450D9260550DA22DECF06F0DDCF04
:1017000007F004C0D9FF05C0DAFFDECF08F0DDCF57
:1017100009F006500824D96E07500920DA6E02C07D
:10172000DFFF20EE03F00450D9260550DA22DE2A2E
:10173000000EDD221200000E0A6E000E096EBBEFD5
:101740000BF009500524076E0A500620086E07C0EA
:10175000F6FF08C0F7FFF86A070EF76403D0080029
:10176000F55005D0F6CFE9FFF7CFEAFFEF5065EC73
:101770000DF0094A0A2A09500524076E0A5006206E
:10178000086E07C0F6FF08C0F7FFF86A070EF76497
:1017900003D00800F55005D0F6CFE9FFF7CFEAFFF8
:1017A000EF500009D8A4D7EF0BF0D9EF0BF0A1EF61
:1017B0000BF0120017BEDFEF0BF0E1EF0BF0E7EFDD
:1017C0000BF016C01BF017C01CF0EBEF0BF0000E77
:1017D0001C6E000E1B6E000E1A6E000E196EFDEFD1
:1017E0000BF0000E036E200E026E12C004F013C048
:1017F00005F036EC0BF0194A1A2A1B50195C1A50E6
:10180000800A186E1C50800A1858D8A00AEF0CF0F5
:101810000CEF0CF0F1EF0BF014C00BF015C00CF056
:1018200012C00DF013C00EF004EC0DF012000F0EFC
:101830009516F30E9516000E86EC0CF0340E046E21
:10184000F20EE82EFED7042EFCD7030E95EC0DF019
:101850000D0E046EFC0EE82EFED7042EFCD7030EF0
:1018600095EC0DF01D0E046E910EE82EFED7042EA1
:10187000FCD700F0030E95EC0DF0020E95EC0DF088
:10188000020E95EC0DF0080E95EC0DF0000E95ECA7
:101890000DF00C0E95EC0DF0000E95EC0DF0060E13
:1018A00095EC0DF01200056E0504D8A45AEF0CF06B
:1018B0005CEF0CF06DEF0CF004507F0F086E0838F1
:1018C0000F0B066E08500F0B076E065095EC0DF0CF
:1018D000075095EC0DF085EF0CF0020E0518D8A41A
:1018E00074EF0CF076EF0CF085EF0CF00450BF0FA6
:1018F000086E08380F0B066E08500F0B076E065067
:1019000095EC0DF0075095EC0DF01200016E01A062
:101910008CEF0CF08EEF0CF091EF0CF08C8892EFC6
:101920000CF08C9801A297EF0CF099EF0CF09CEF63
:101930000CF08C8A9DEF0CF08C9A01A4A2EF0CF0B5
:10194000A4EF0CF0A7EF0CF08C8CA8EF0CF08C9CA3
:1019500001A6ADEF0CF0AFEF0CF0B2EF0CF08C8EF7
:10196000B3EF0CF08C9E12009F0E0001A76F000ECB
:10197000A86F9BC0A9F09CC0AAF0000EAD6F000E2E
:10198000AC6F000EB36F000EB26FA90E526E000E58
:10199000536E9DC054F09EC055F0A70E566E000EBB
:1019A000576EDDEC0CF00001AC519B25D96EAD51AA
:1019B0009C21DA6E000EDF6E120054C058F055C044
:1019C00059F0F1EF0CF052C040F053C041F0580E06
:1019D000426E000E436E56C044F057C045F08FEC87
:1019E0000AF058C0F6FF59C0F7FF0800F55000098B
:1019F000D8A4FDEF0CF0FFEF0CF0E3EF0CF0000EBD
:101A0000536E000E526E1200000E116E000E106E1C
:101A100015EF0DF00FC002F0036A0DC004F00EC008
:101A200005F036EC0BF0104A112A10500B24D96E39
:101A300011500C20DA6EDF500F6E0F50D8A423EF38
:101A40000DF025EF0DF00AEF0DF0120014BE33EF8C
:101A50000DF0145006E11304D8B031EF0DF033EF60
:101A60000DF041EF0DF013C015F014C016F0151E67
:101A7000161E154A162A15C013F016C014F045EFAD
:101A80000DF013C013F014C014F012008A0EF66E9D
:101A90001B0EF76E000EF86E00EECCF010EE10F09C
:101AA0000900F5CFEEFFE550E150FAE100EE60F0FD
:101AB0003B0EEE6AE806FDE15F6A5E6A5D6A5C6A9B
:101AC000000EF86E000177EF04F0046E04500F0B67
:101AD000026E0450F00B036E838403380F0B86EC08
:101AE0000CF083861A0EE82EFED700D083960250A3
:101AF00086EC0CF083861A0EE82EFED700D0839673
:101B00001200000E0F015E6F5C915C935C955C9718
:101B100093809382938493865C9993985F9596942F
:101B20005F9196908D908A981200036E8394035073
:101B300086EC0CF083860B0E026E620EE82EFED74A
:101B4000022EFCD700D083961200010E046E020E06
:101B500053EC0CF0120E056E080E066E9BEC0BF0AB
:101B60001200016EACA2B7EF0DF0B9EF0DF0B2EFBD
:101B70000DF001C0ADFF1200D3508F0B6009D36E82
:101B8000D350FC0B0209D36E12003132334134358D
:101B90003642373839432A302344000E95EC0DF095
:081BA000010E95EC0DF012009E
:020000040020DA
:08000000FFFFFFFFFFFFFFFF00
:020000040030CA
:0E00000000285E3CFFD185FF0FC00FE00F40CF
:00000001FF
