:0400000037EF35F0B1
:1069E000000E13EC35F0010E13EC35F012003132CD
:1069F000334134353642373839432A302344D35073
:106A00008F0B6009D36ED350FC0B0209D36E1200BA
:106A1000016EACA20EEF35F010EF35F009EF35F056
:106A200001C0ADFF1200036E8394035000EC36F0FA
:106A300083860B0E026E620EE82EFED7022EFCD766
:106A400000D083961200000E0F015E6F5C915C9384
:106A50005C955C9793809382938493865C999398DA
:106A60005F9596945F9196908D908A981200EE0EA5
:106A7000F66E690EF76E000EF86E00EEB4F010EED2
:106A800010F00900F5CFEEFFE550E150FAE100EE1D
:106A90008BF0290EEE6AE806FDE1000EF86E0001AB
:106AA000D9EF3AF0046E04500F0B026E0450F00B55
:106AB000036E838403380F0B00EC36F083861A0EC6
:106AC000E82EFED700D08396025000EC36F0838685
:106AD0001A0EE82EFED700D08396120014BE7BEF6C
:106AE00035F0145006E11304D8B079EF35F07BEFA0
:106AF00035F089EF35F013C015F014C016F0151EEF
:106B0000161E154A162A15C013F016C014F08DEF84
:106B100035F013C013F014C014F01200000E116E03
:106B2000000E106E9FEF35F00FC002F0036A0DC02B
:106B300004F00EC005F019EC37F0104A112A10507D
:106B40000B24D96E11500C20DA6EDF500F6E0F50EF
:106B5000D8A4ADEF35F0AFEF35F094EF35F012007B
:106B600054C058F055C059F0C4EF35F052C040F051
:106B700053C041F0580E426E000E436E56C044F0B2
:106B800057C045F07EEC37F058C0F6FF59C0F7FF0C
:106B90000800F5500009D8A4D0EF35F0D2EF35F059
:106BA000B6EF35F0000E536E000E526E12005E0E00
:106BB0000001606F000E616F5AC062F05BC063F04D
:106BC000000E666F000E656F000E6C6F000E6B6F2F
:106BD000620E526E000E536E5CC054F05DC055F0F4
:106BE000600E566E000E576EB0EC35F00001655128
:106BF0005A24D96E66515B20DA6E000EDF6E1200E9
:106C0000016E01A006EF36F008EF36F00BEF36F01C
:106C10008C880CEF36F08C9801A211EF36F013EF50
:106C200036F016EF36F08C8A17EF36F08C9A01A406
:106C30001CEF36F01EEF36F021EF36F08C8C22EF91
:106C400036F08C9C01A627EF36F029EF36F02CEFBA
:106C500036F08C8E2DEF36F08C9E1200056E0504FA
:106C6000D8A435EF36F037EF36F048EF36F0045061
:106C70007F0F086E08380F0B066E08500F0B076E5B
:106C8000065013EC35F0075013EC35F060EF36F09A
:106C9000020E0518D8A44FEF36F051EF36F060EF32
:106CA00036F00450BF0F086E08380F0B066E085000
:106CB0000F0B076E065013EC35F0075013EC35F050
:106CC00012000F0E9516F30E9516000E00EC36F01E
:106CD000340E046EF20EE82EFED7042EFCD7030EFF
:106CE00013EC35F00D0E046EFC0EE82EFED7042ECC
:106CF000FCD7030E13EC35F01D0E046E910EE82E3A
:106D0000FED7042EFCD700F0030E13EC35F0020E74
:106D100013EC35F0020E13EC35F0080E13EC35F0E1
:106D2000000E13EC35F00C0E13EC35F0000E13ECE6
:106D300035F0060E13EC35F0120017BEA2EF36F058
:106D4000A4EF36F0AAEF36F016C01BF017C01CF007
:106D5000AEEF36F0000E1C6E000E1B6E000E1A6EAB
:106D6000000E196EC0EF36F0000E036E200E026E9C
:106D700012C004F013C005F019EC37F0194A1A2AB2
:106D80001B50195C1A50800A186E1C50800A185843
:106D9000D8A0CDEF36F0CFEF36F0B4EF36F014C018
:106DA0000BF015C00CF012C00DF013C00EF08EECFD
:106DB00035F01200000E0A6E000E096EFAEF36F082
:106DC00009500524076E0A500620086E07C0F6FF1A
:106DD00008C0F7FFF86A070EF76403D00800F55003
:106DE00005D0F6CFE9FFF7CFEAFFEF5052EC35F0D0
:106DF000094A0A2A09500524076E0A500620086E1F
:106E000007C0F6FF08C0F7FFF86A070EF76403D063
:106E10000800F55005D0F6CFE9FFF7CFEAFFEF50B5
:106E20000009D8A416EF37F018EF37F0E0EF36F08E
:106E3000120004500510D8B420EF37F022EF37F0DD
:106E40002BEF37F004500510D8A429EF37F02BEFC3
:106E500037F030EF37F0025008EC35F07DEF37F0C7
:106E600020EE09F00450D9260550DA22DE50DE105B
:106E7000D8B43DEF37F03FEF37F05AEF37F020EE60
:106E800009F00450D9260550DA2210EE03F0045020
:106E9000E1260550E222DE50E65CE650800A0A6EEA
:106EA000DE50800A0A58D8B058EF37F05AEF37F062
:106EB0007DEF37F020EE03F00450D9260550DA229A
:106EC000DECF06F0DDCF07F004C0D9FF05C0DAFF42
:106ED000DECF08F0DDCF09F006500824D96E075048
:106EE0000920DA6E02C0DFFF20EE03F00450D9263D
:106EF0000550DA22DE2A000EDD22120042C0D9FF40
:106F000043C0DAFFDECFF6FFDDCFF7FF0800F55014
:106F1000250AD8A48EEF37F090EF37F010EF38F055
:106F200042C0D9FF43C0DAFFDE2A000EDD22000E88
:106F300000018C6F000E8B6F8BC08FF08D698E6996
:106F400042C0D9FF43C0DAFFDECF50F0DDCF51F0B1
:106F500050C0F6FF51C0F7FF0800F550640AD8B4DE
:106F6000B4EF37F0B6EF37F0C4EF37F050C0F6FFAC
:106F700051C0F7FF0800F550690AD8A4C2EF37F0F6
:106F8000C4EF37F007EF38F044C0D9FF45C0DAFF4F
:106F9000DFCF46F0020EDE26DFCF47F0000EDD2207
:106FA00046C0D9FF47C0DAFFDECF48F0DDCF49F059
:106FB000000E49BEFF0E4A6E4B6E4C6E4D6E4E6E0D
:106FC0004F6E010E5024466E000E5120476E42C097
:106FD000D9FF43C0DAFF46C0DEFF47C0DDFF40C037
:106FE0001DF041C01EF048C01FF049C020F04AC04B
:106FF00021F04BC022F04CC023F04DC024F04EC015
:1070000025F04FC026F09BEC39F024EF38F042C059
:10701000D9FF43C0DAFFDE2A000EDD2224EF38F06C
:1070200042C0D9FF43C0DAFFDECFF6FFDDCFF7FF66
:107030000800F550026E036A40C004F041C005F03C
:1070400019EC37F007EF38F01200000E126E08BE90
:107050002EEF38F02CEF38F040EF38F0081E071E06
:10706000061E051E041E031E021E016C000E0222D7
:10707000032204220522062207220822010E126E94
:1070800010BE47EF38F045EF38F057EF38F0101EDC
:107090000F1E0E1E0D1E0C1E0B1E0A1E096C000E6E
:1070A0000A220B220C220D220E220F22102209503E
:1070B0000A100B100C100D100E100F101010D8B479
:1070C00064EF38F066EF38F0AEEF38F0010E116E75
:1070D00074EF38F0D89009360A360B360C360D3678
:1070E0000E360F361036112A10AE79EF38F07BEFDE
:1070F00038F06AEF38F00950015C0A5002580B5022
:1071000003580C5004580D5005580E5006580F5097
:10711000075810500858D8A090EF38F092EF38F088
:10712000A2EF38F00950015E0A50025A0B50035A80
:107130000C50045A0D50055A0E50065A0F50075A5B
:107140001050085AD89010320F320E320D320C32D5
:107150000B320A320932112E7BEF38F01250D8B4BC
:10716000B4EF38F0B6EF38F0C6EF38F0081E071E5F
:10717000061E051E041E031E021E016C000E0222C6
:1071800003220422052206220722082201C001F060
:1071900002C002F003C003F004C004F005C005F013
:1071A00006C006F007C007F008C008F01200000E85
:1071B000126E10BEE0EF38F0DEEF38F0F2EF38F08C
:1071C000101E0F1E0E1E0D1E0C1E0B1E0A1E096C1D
:1071D000000E0A220B220C220D220E220F22102258
:1071E000010E126E08BEF9EF38F0F7EF38F00BEF32
:1071F00039F0081E071E061E051E041E031E021E71
:10720000016C000E0222032204220522062207221C
:107210000822010E121A20EE13F0070EDE6AE806AD
:10722000FDE209500A100B100C100D100E100F107B
:107230001010D8B41EEF39F020EF39F072EF39F0AA
:10724000010E116E2EEF39F0D89009360A360B3642
:107250000C360D360E360F361036112A10AE33EFBF
:1072600039F035EF39F024EF39F0D8901336143671
:10727000153616361736183619361A360950015C87
:107280000A5002580B5003580C5004580D50055822
:107290000E5006580F50075810500858D8A053EFFA
:1072A00039F055EF39F066EF39F00950015E0A50B8
:1072B000025A0B50035A0C50045A0D50055A0E50E6
:1072C000065A0F50075A1050085A1380D89010329F
:1072D0000F320E320D320C320B320A320932112EBD
:1072E00035EF39F01250D8B478EF39F07AEF39F041
:1072F0008AEF39F01A1E191E181E171E161E151EAB
:10730000141E136C000E14221522162217221822A6
:1073100019221A2213C001F014C002F015C003F0A4
:1073200016C004F017C005F018C006F019C007F029
:107330001AC008F012001FC035F020C036F021C07E
:1073400037F022C038F023C039F024C03AF025C00D
:107350003BF026C03CF03CBEB0EF39F0B3EF39F063
:10736000010EB4EF39F0000E3F6E3F50D8B4BBEFC2
:1073700039F0BDEF39F0CDEF39F03C1E3B1E3A1E1F
:10738000391E381E371E361E356C000E3622372247
:10739000382239223A223B223C2200018EBFDBEF09
:1073A00039F08E5106E18D05D8B0D9EF39F0DBEF19
:1073B00039F0E1EF39F0000E326E010E316EE5EF7B
:1073C00039F08DC031F08EC032F08BC033F08CC0FC
:1073D00034F03F50D8B4EFEF39F0F1EF39F008EF67
:1073E0003AF03306D8A034063F50D8A4FAEF39F06B
:1073F000FCEF39F002EF3AF0000E306E2B0E2F6EDC
:1074000006EF3AF0000E306E2D0E2F6E2FC03FF0BB
:10741000000E3E6E1F0E3D6E000EB36F8CEF3AF005
:107420003D06D8A03E06940E3D24D96E000E3E20A7
:10743000DA6E35C001F036C002F037C003F038C054
:1074400004F039C005F03AC006F03BC007F03CC07C
:1074500008F00A0E096E000E0A6E000E0B6E000E8A
:107460000C6E000E0D6E000E0E6E000E0F6E000EF6
:10747000106E25EC38F001C027F002C028F003C0E0
:1074800029F004C02AF005C02BF006C02CF007C07C
:107490002DF008C02EF027C013F028C014F06EECB9
:1074A00035F01350300FDF6E3106D8A032063306A8
:1074B000D8A0340635C001F036C002F037C003F062
:1074C00038C004F039C005F03AC006F03BC007F000
:1074D0003CC008F00A0E096E000E0A6E000E0B6E1C
:1074E000000E0C6E000E0D6E000E0E6E000E0F6E76
:1074F000000E106ED7EC38F001C035F002C036F047
:1075000003C037F004C038F005C039F006C03AF0C7
:1075100007C03BF008C03CF03EBE97EF3AF03E504B
:1075200008E13D04D8A097EF3AF099EF3AF0B5EFB3
:107530003AF0355036103710381039103A103B10E9
:107540003C10D8A4A6EF3AF0A8EF3AF010EF3AF0CA
:1075500032BEB5EF3AF0325006E13104D8B0B3EFA5
:107560003AF0B5EF3AF010EF3AF03F50D8B4BBEF35
:107570003AF0BDEF3AF0C8EF3AF03D06D8A03E062B
:10758000940E3D24D96E000E3E20DA6E3FC0DFFF20
:107590001DC012F01EC013F0940E3D24146E000E98
:1075A0003E20156E33C016F034C017F09DEC36F057
:1075B0001200FFEC34F023EC35F061EC36F0F0EC27
:1075C00034F0010E0001936F39EF3FF0F0EC34F02E
:1075D000010E046E010E2EEC36F0740E056E7F0E59
:1075E000066EDAEC36F0010E046E020E2EEC36F06A
:1075F000C00E056E7F0E066EDAEC36F0100E00013E
:107600006E6F390E6D6F0D0EE82EFED76D2FFCD705
:107610006E2FFAD700D0F0EC34F0010E046E010E9C
:107620002EEC36F0ED0E056E7F0E066EDAEC36F0BF
:10763000000E0001846F030E836F000E866F010E33
:10764000856F010E046E010E2EEC36F0ED0E056E08
:107650007F0E066EDAEC36F085C004F0020E2EECDA
:1076600036F06F0E5A6E000E5B6EFB0E5C6E7F0E78
:107670005D6E83C05EF084C05FF0D7EC35F06F0EB6
:10768000056E000E066EDAEC36F0030E00016E6F2A
:10769000080E6D6F770EE82EFED76D2FFCD76E2F7C
:1076A000FAD7F0EC34F00001854B862B86BF62EFF1
:1076B0003BF0865109E1110E855DD8A062EF3BF0E9
:1076C00064EF3BF021EF3BF08307D8A0840784BF31
:1076D00074EF3BF0845106E18305D8B072EF3BF0C4
:1076E00074EF3BF01DEF3BF0020E936F39EF3FF06C
:1076F000F0EC34F0010E046E010E2EEC36F0F40EB8
:10770000056E7F0E066EDAEC36F0010E046E020E88
:107710002EEC36F0D40E056E7E0E066EDAEC36F0E8
:1077200081B295EF3BF097EF3BF0AAEF3BF01A0EDA
:1077300000016D6FF80EE82EFED76D2FFCD700F01C
:1077400081A2A5EF3BF0A7EF3BF0A0EF3BF0010ECD
:107750000001926F81B4AFEF3BF0B1EF3BF0C4EFAB
:107760003BF01A0E00016D6FF80EE82EFED76D2F5C
:10777000FCD700F081A2BFEF3BF0C1EF3BF0BAEFC6
:107780003BF0010E0001916F00019251D8A4CBEFA4
:107790003BF0CDEF3BF0D5EF3BF09151D8B4D3EFB8
:1077A0003BF0D5EF3BF039EF3FF0F0EC34F0010E59
:1077B000046E010E2EEC36F0DD0E056E7F0E066EA9
:1077C000DAEC36F0010E046E020E2EEC36F0E50E09
:1077D000056E7F0E066EDAEC36F000019251D8B4D9
:1077E000F4EF3BF0F6EF3BF00EEF3CF0F0EC34F052
:1077F000010E046E010E2EEC36F0CB0E056E7F0EE0
:10780000066EDAEC36F0010E046E020E2EEC36F047
:10781000E50E056E7F0E066EDAEC36F00001915132
:10782000D8B415EF3CF017EF3CF02FEF3CF0F0EC44
:1078300034F0010E046E010E2EEC36F0DD0E056EF6
:107840007F0E066EDAEC36F0010E046E020E2EECA0
:1078500036F0D40E056E7F0E066EDAEC36F00001BF
:107860009151D8B436EF3CF038EF3CF05BEF3CF090
:107870009151D8B43EEF3CF040EF3CF05BEF3CF070
:10788000F0EC34F0010E046E010E2EEC36F0CB0E4F
:10789000056E7F0E066EDAEC36F0010E046E020EF7
:1078A0002EEC36F0D40E056E7F0E066EDAEC36F056
:1078B000010E0001906F9051D8B461EF3CF063EF7E
:1078C0003CF039EF3FF0F0EC34F0010E046E010EA5
:1078D0002EEC36F0660E056E7F0E066EDAEC36F094
:1078E000010E046E020E2EEC36F0480E056E7F0E71
:1078F000066EDAEC36F00B0E00016E6F260E6D6F21
:107900005D0EE82EFED76D2FFCD76E2FFAD700D074
:10791000030E0001936F39EF3FF0F0EC34F0010EED
:10792000046E010E2EEC36F0C30E056E7E0E066E52
:10793000DAEC36F014EF3DF0000E0001886F000E17
:10794000876F88BFADEF3CF0885109E1080E875D75
:10795000D8A0ADEF3CF0AFEF3CF0B1EF3CF0D2EF90
:107960003CF087C06DF0010E6E6F6D2BBAEF3CF0EE
:10797000D8906E376D2FB8EF3CF000016E518C6ED1
:10798000030E00016E6F8A0E6D6F550EE82EFED746
:107990006D2FFCD76E2FFAD700D00001874B882BB4
:1079A000A1EF3CF0000E8A6F000E896F8ABFE2EFF4
:1079B0003CF08A5109E1080E895DD8A0E2EF3CF065
:1079C000E4EF3CF0E6EF3CF007EF3DF089C06DF0EE
:1079D000000E6E6F6D2BEFEF3CF0D8906E376D2F71
:1079E000EDEF3CF000016E518C6E030E00016E6FE6
:1079F0008A0E6D6F550EE82EFED76D2FFCD76E2FB9
:107A0000FAD700D00001894B8A2BD6EF3CF0020E4A
:107A100000016E6F040E6D6FBA0EE82EFED76D2F4B
:107A2000FCD76E2FFAD700F081B219EF3DF01BEFB3
:107A30003DF09CEF3CF081B420EF3DF022EF3DF0B3
:107A40009CEF3CF081B227EF3DF029EF3DF061EF74
:107A50003DF01A0E00016D6FF80EE82EFED76D2F67
:107A6000FCD700F081A237EF3DF039EF3DF032EF67
:107A70003DF0F0EC34F0010E046E010E2EEC36F009
:107A8000570E056E7F0E066EDAEC36F0010E046EB0
:107A9000020E2EEC36F0070E056E7F0E066EDAEC47
:107AA00036F00B0E00016E6F260E6D6F5D0EE82E28
:107AB000FED76D2FFCD76E2FFAD700D0040E000131
:107AC000936F81B466EF3DF068EF3DF039EF3FF022
:107AD0001A0E00016D6FF80EE82EFED76D2FFCD741
:107AE00000F081A276EF3DF078EF3DF071EF3DF0D0
:107AF000F0EC34F0010E046E010E2EEC36F0F60EB2
:107B0000056E7E0E066EDAEC36F0010E046E020E85
:107B10002EEC36F0070E056E7F0E066EDAEC36F0B0
:107B20000B0E00016E6F260E6D6F5D0EE82EFED7F8
:107B30006D2FFCD76E2FFAD700D0040E0001936F83
:107B400039EF3FF0F0EC34F0010E046E010E2EEC34
:107B500036F0180E056E7F0E066EDAEC36F081B048
:107B6000B4EF3DF0B6EF3DF0E8EF3DF01A0E000146
:107B70006D6FF80EE82EFED76D2FFCD700F081A0B8
:107B8000C4EF3DF0C6EF3DF0BFEF3DF08DB0CBEF61
:107B90003DF0CEEF3DF0010ECFEF3DF0000EFF0ABD
:107BA00000016D6F8D506D19FE0B6D198D6E8AB8C9
:107BB000DCEF3DF0DFEF3DF0010EE0EF3DF0000EB9
:107BC000FF0A6D6F6D3B8A506D19EF0B6D198A6E50
:107BD00081B2EDEF3DF0EFEF3DF027EF3EF01A0EF2
:107BE00000016D6FF80EE82EFED76D2FFCD700F068
:107BF00081A2FDEF3DF0FFEF3DF0F8EF3DF0F0EC3E
:107C000034F0010E046E010E2EEC36F08F0E056E70
:107C10007F0E066EDAEC36F0010E046E020E2EECCC
:107C200036F0E50E056E7E0E066EDAEC36F00B0EC3
:107C300000016E6F260E6D6F5D0EE82EFED76D2F64
:107C4000FCD76E2FFAD700D0050E0001936F81B4D8
:107C50002CEF3EF02EEF3EF039EF3FF01A0E000110
:107C60006D6FF80EE82EFED76D2FFCD700F081A2C5
:107C70003CEF3EF03EEF3EF037EF3EF0F0EC34F0FC
:107C8000010E046E010E2EEC36F0A80E056E7F0E6E
:107C9000066EDAEC36F0010E046E020E2EEC36F0B3
:107CA000E50E056E7E0E066EDAEC36F00B0E000168
:107CB0006E6F260E6D6F5D0EE82EFED76D2FFCD712
:107CC0006E2FFAD700D0050E0001936F39EF3FF009
:107CD000F0EC34F0010E046E010E2EEC36F0180EAE
:107CE000056E7F0E066EDAEC36F081B07AEF3EF06C
:107CF0007CEF3EF09FEF3EF01A0E00016D6FF80E24
:107D0000E82EFED76D2FFCD700F081A08AEF3EF061
:107D10008CEF3EF085EF3EF08DB491EF3EF094EFA6
:107D20003EF0010E95EF3EF0000EFF0A00016D6F70
:107D30006D476D478D506D19FB0B6D198D6E81B2BE
:107D4000A4EF3EF0A6EF3EF0DEEF3EF01A0E00018B
:107D50006D6FF80EE82EFED76D2FFCD700F081A2D4
:107D6000B4EF3EF0B6EF3EF0AFEF3EF0F0EC34F0A3
:107D7000010E046E010E2EEC36F0820E056E7F0EA3
:107D8000066EDAEC36F0010E046E020E2EEC36F0C2
:107D9000E50E056E7E0E066EDAEC36F00B0E000177
:107DA0006E6F260E6D6F5D0EE82EFED76D2FFCD721
:107DB0006E2FFAD700D0070E0001936F81B4E3EF66
:107DC0003EF0E5EF3EF039EF3FF01A0E00016D6F27
:107DD000F80EE82EFED76D2FFCD700F081A2F3EF4E
:107DE0003EF0F5EF3EF0EEEF3EF0F0EC34F0010E39
:107DF000046E010E2EEC36F09C0E056E7F0E066EA4
:107E0000DAEC36F0010E046E020E2EEC36F0E50EC2
:107E1000056E7E0E066EDAEC36F00B0E00016E6F0C
:107E2000260E6D6F5D0EE82EFED76D2FFCD76E2FE0
:107E3000FAD700D0070E0001936F39EF3FF0F0EC56
:107E400034F0010E046E010E2EEC36F0B40E056E09
:107E50007F0E066EDAEC36F0010E046E020E2EEC8A
:107E600036F0380E056E7F0E066EDAEC36F039EF1E
:107E70003FF0000193516D6F6E6B6E51000AD8B4E4
:107E800044EF3FF039EF3FF06D51010AD8B4E6EF0F
:107E90003AF0030AD8B478EF3BF0010AD8B48DEF7A
:107EA0003CF0070AD8B4A2EF3DF0010AD8B468EF5D
:107EB0003EF0020AD8B41FEF3FF039EF3FF000EF79
:107EC00000F00050726F62616E646F206C656473C5
:107ED0002E2E2E004254313A205F207C7C204254CA
:107EE000323A205F00496E697420746573742042D1
:107EF000757A7A6572004C65647320696E636F727F
:107F0000726563746F7300496E697420746573746D
:107F10002052656C6179730052656C6179732066DB
:107F2000756E633F2E2E2E006F6B202042544E3113
:107F3000203A2042544E32005465737420636F6DB2
:107F4000706C657461646F00496E69742074657348
:107F500074206C656473004C65647320636F727287
:107F60006563746F7300426F746F6E65732063682E
:107F700065636B007374617274696E6720746573F6
:107F8000740042757A7A6572206269656E210052CA
:107F9000656C617973206269656E210042757A7A39
:107FA0006572206D616C210052656C617973206D82
:107FB000616C210046656C69636964616465730086
:107FC0006F6620747261696E65720042544E313A78
:107FD000203A290042546E323A203A290042544E47
:107FE000313A205F0042546E323A205F00496E20E1
:0F7FF0002E2E2E00425430206F6B0025640000AF
:020000040020DA
:08000000FFFFFFFFFFFFFFFF00
:020000040030CA
:0E00000000285E3CFFD185FF0FC00FE00F40CF
:00000001FF
