:040000006FEF3AF074
:10745200000E4DEC3AF0010E4DEC3AF012003132D2
:10746200334134353642373839432A302344D350F6
:107472008F0B6009D36ED350FC0B0209D36E12003E
:10748200010E146E020EFDEC3AF04C0E156E7F0EDC
:10749200166EA4EC3AF01200136E83941350CFECE4
:1074A2003AF083860B0E126E620EE82EFED7122E73
:1074B200FCD700D083961200000E0F015E6F5C9124
:1074C2005C935C959380938293845C9993985F9587
:1074D20096945F9196908D908A981200600EF66E47
:1074E200740EF76E000EF86E00EE01F010EE10F062
:1074F2000900F5CFEEFFE550E150FAE1246A236A74
:10750200226A216A000EF86E00016CEF3BF0146EE5
:1075120014500F0B126E1450F00B136E8384133839
:107522000F0BCFEC3AF083861A0EE82EFED700D06E
:1075320083961250CFEC3AF083861A0EE82EFED7CD
:1075420000D083961200000E1A6E000E196EBAEF6A
:107552003AF019501524176E1A501620186E17C0DB
:10756200F6FF18C0F7FF0800F55088EC3AF0194A08
:107572001A2A19501524176E1A501620186E17C0A1
:10758200F6FF18C0F7FF0800F5500009D8A4CCEFA9
:107592003AF0CEEF3AF0AAEF3AF01200116E11A0D3
:1075A200D5EF3AF0D7EF3AF0DAEF3AF08C88DBEF2A
:1075B2003AF08C9811A2E0EF3AF0E2EF3AF0E5EF00
:1075C2003AF08C8AE6EF3AF08C9A11A4EBEF3AF09B
:1075D200EDEF3AF0F0EF3AF08C8CF1EF3AF08C9C50
:1075E20011A6F6EF3AF0F8EF3AF0FBEF3AF08C8E94
:1075F200FCEF3AF08C9E1200156E1504D8A404EF2D
:107602003BF006EF3BF017EF3BF014507F0F186E84
:1076120018380F0B166E18500F0B176E16504DECD4
:107622003AF017504DEC3AF02FEF3BF0020E1518DE
:10763200D8A41EEF3BF020EF3BF02FEF3BF01450AD
:10764200BF0F186E18380F0B166E18500F0B176EEF
:1076520016504DEC3AF017504DEC3AF012000F0E66
:107662009516F30E9516000ECFEC3AF0340E146E0A
:10767200F20EE82EFED7142EFCD7030E4DEC3AF094
:107682000D0E146EFC0EE82EFED7142EFCD7030E40
:107692004DEC3AF01D0E146E910EE82EFED7142E0C
:1076A200FCD700F0030E4DEC3AF0020E4DEC3AF02E
:1076B200020E4DEC3AF0080E4DEC3AF0000E4DEC95
:1076C2003AF00C0E4DEC3AF0000E4DEC3AF0060E8C
:1076D2004DEC3AF0120038EC3AF05DEC3AF030EC56
:1076E2003BF029EC3AF0010E246E3BEF3FF029EC1F
:1076F2003AF0010E146E010EFDEC3AF02B0E156EEF
:107702007F0E166EA4EC3AF0010E146E020EFDEC22
:107712003AF0D60E156E7E0E166EA4EC3AF041ECDF
:107722003AF081B097EF3BF099EF3BF03BEF3FF03F
:107732001A0E1B6EF80EE82EFED71B2EFCD700D0B9
:1077420081A0A6EF3BF0A8EF3BF0A1EF3BF0020EC9
:10775200246E3BEF3FF029EC3AF0010E146E010E5D
:10776200FDEC3AF0F80E156E7F0E166EA4EC3AF0B0
:10777200010E146E020EFDEC3AF0E70E156E7E0E4F
:10778200166EA4EC3AF081B2C9EF3BF0CBEF3BF0BE
:10779200DCEF3BF01A0E1B6EF80EE82EFED71B2E06
:1077A200FCD700D081A2D8EF3BF0DAEF3BF0D3EF69
:1077B2003BF0010E236E81B4E1EF3BF0E3EF3BF0CF
:1077C200F4EF3BF01A0E1B6EF80EE82EFED71B2EBE
:1077D200FCD700D081A2F0EF3BF0F2EF3BF0EBEFF1
:1077E2003BF0010E226E2350D8A4FAEF3BF0FCEFDF
:1077F2003BF004EF3CF02250D8B402EF3CF004EF2F
:107802003CF03BEF3FF029EC3AF0010E146E010E12
:10781200FDEC3AF0E80E156E7F0E166EA4EC3AF00F
:10782200010E146E020EFDEC3AF0F00E156E7F0E94
:10783200166EA4EC3AF02350D8B422EF3CF024EFB9
:107842003CF03CEF3CF029EC3AF0010E146E010ED4
:10785200FDEC3AF0D60E156E7F0E166EA4EC3AF0E1
:10786200010E146E020EFDEC3AF0F00E156E7F0E54
:10787200166EA4EC3AF02250D8B442EF3CF044EF3A
:107882003CF05CEF3CF029EC3AF0010E146E010E74
:10789200FDEC3AF0E80E156E7F0E166EA4EC3AF08F
:1078A200010E146E020EFDEC3AF0DF0E156E7F0E25
:1078B200166EA4EC3AF02250D8B462EF3CF064EFBA
:1078C2003CF086EF3CF02250D8B46AEF3CF06CEF0B
:1078D2003CF086EF3CF029EC3AF0010E146E010EFA
:1078E200FDEC3AF0D60E156E7F0E166EA4EC3AF051
:1078F200010E146E020EFDEC3AF0DF0E156E7F0ED5
:10790200166EA4EC3AF0010E216E2150D8B48CEF21
:107912003CF08EEF3CF03BEF3FF029EC3AF0010EE9
:10792200146E010EFDEC3AF08A0E156E7F0E166E85
:10793200A4EC3AF0010E146E020EFDEC3AF06C0E5D
:10794200156E7F0E166EA4EC3AF00B0E1C6E260E10
:107952001B6E5E0EE82EFED71B2EFCD71C2EFAD70E
:10796200030E246E3BEF3FF029EC3AF0010E146E49
:10797200010EFDEC3AF0C50E156E7E0E166EA4ECED
:107982003AF032EF3DF0000E1E6E000E1D6E1EBE6E
:10799200D4EF3CF01E5009E1080E1D5CD8A0D4EFD4
:1079A2003CF0D6EF3CF0D8EF3CF0F5EF3CF01DC0D8
:1079B2001BF0010E1C6E1B2AE1EF3CF0D8901C3626
:1079C2001B2EDFEF3CF01C508C6E030E1C6E8A0ED9
:1079D2001B6E560EE82EFED71B2EFCD71C2EFAD796
:1079E2001D4A1E2AC8EF3CF0000E206E000E1F6ECC
:1079F20020BE05EF3DF0205009E1080E1F5CD8A023
:107A020005EF3DF007EF3DF009EF3DF026EF3DF0C9
:107A12001FC01BF0000E1C6E1B2A12EF3DF0D89007
:107A22001C361B2E10EF3DF01C508C6E030E1C6E8C
:107A32008A0E1B6E560EE82EFED71B2EFCD71C2E6E
:107A4200FAD71F4A202AF9EF3CF0020E1C6E040EF0
:107A52001B6EBA0EE82EFED71B2EFCD71C2EFAD7B1
:107A620000D081B237EF3DF039EF3DF0C4EF3CF08A
:107A720081B43EEF3DF040EF3DF0C4EF3CF081B207
:107A820045EF3DF047EF3DF07BEF3DF01A0E1B6EE8
:107A9200F80EE82EFED71B2EFCD700D081A254EFA1
:107AA2003DF056EF3DF04FEF3DF029EC3AF0010E7C
:107AB200146E010EFDEC3AF07B0E156E7F0E166E03
:107AC200A4EC3AF0010E146E020EFDEC3AF01A0E1E
:107AD200156E7F0E166EA4EC3AF00B0E1C6E260E7F
:107AE2001B6E5E0EE82EFED71B2EFCD71C2EFAD77D
:107AF200040E246E81B480EF3DF082EF3DF03BEF47
:107B02003FF01A0E1B6EF80EE82EFED71B2EFCD786
:107B120000D081A28FEF3DF091EF3DF08AEF3DF072
:107B220029EC3AF0010E146E010EFDEC3AF0090E4A
:107B3200156E7F0E166EA4EC3AF0010E146E020E54
:107B4200FDEC3AF01A0E156E7F0E166EA4EC3AF0AA
:107B52000B0E1C6E260E1B6E5E0EE82EFED71B2E23
:107B6200FCD71C2EFAD7040E246E3BEF3FF029EC13
:107B72003AF0010E146E010EFDEC3AF03C0E156E59
:107B82007F0E166EA4EC3AF081B0CAEF3DF0CCEF56
:107B92003DF0FCEF3DF01A0E1B6EF80EE82EFED7FC
:107BA2001B2EFCD700D081A0D9EF3DF0DBEF3DF0DA
:107BB200D4EF3DF08DB0E0EF3DF0E3EF3DF0010E8C
:107BC200E4EF3DF0000EFF0A1B6E8D501B18FE0BFA
:107BD2001B188D6E8AB8F0EF3DF0F3EF3DF0010E09
:107BE200F4EF3DF0000EFF0A1B6E1B3A8A501B1881
:107BF200EF0B1B188A6E81B201EF3EF003EF3EF0ED
:107C020037EF3EF01A0E1B6EF80EE82EFED71B2E33
:107C1200FCD700D081A210EF3EF012EF3EF00BEF46
:107C22003EF029EC3AF0010E146E010EFDEC3AF032
:107C3200A50E156E7F0E166EA4EC3AF0010E146EB0
:107C4200020EFDEC3AF0F80E156E7E0E166EA4ECE6
:107C52003AF00B0E1C6E260E1B6E5E0EE82EFED741
:107C62001B2EFCD71C2EFAD7050E246E81B43CEFD6
:107C72003EF03EEF3EF03BEF3FF01A0E1B6EF80E69
:107C8200E82EFED71B2EFCD700D081A24BEF3EF090
:107C92004DEF3EF046EF3EF029EC3AF0010E146E45
:107CA200010EFDEC3AF0BE0E156E7F0E166EA4ECC0
:107CB2003AF0010E146E020EFDEC3AF0F80E156E5B
:107CC2007E0E166EA4EC3AF00B0E1C6E260E1B6E88
:107CD2005E0EE82EFED71B2EFCD71C2EFAD7050E01
:107CE200246E3BEF3FF029EC3AF0010E146E010EC8
:107CF200FDEC3AF03C0E156E7F0E166EA4EC3AF0D7
:107D020081B086EF3EF088EF3EF0A9EF3EF01A0E0A
:107D12001B6EF80EE82EFED71B2EFCD700D081A0DA
:107D220095EF3EF097EF3EF090EF3EF08DB49CEF72
:107D32003EF09FEF3EF0010EA0EF3EF0000EFF0A74
:107D42001B6E1B461B468D501B18FB0B1B188D6EA2
:107D520081B2AEEF3EF0B0EF3EF0E4EF3EF01A0E2D
:107D62001B6EF80EE82EFED71B2EFCD700D081A288
:107D7200BDEF3EF0BFEF3EF0B8EF3EF029EC3AF037
:107D8200010E146E010EFDEC3AF0980E156E7F0E88
:107D9200166EA4EC3AF0010E146E020EFDEC3AF0EF
:107DA200F80E156E7E0E166EA4EC3AF00B0E1C6EDB
:107DB200260E1B6E5E0EE82EFED71B2EFCD71C2E47
:107DC200FAD7070E246E81B4E9EF3EF0EBEF3EF0F6
:107DD2003BEF3FF01A0E1B6EF80EE82EFED71B2E5D
:107DE200FCD700D081A2F8EF3EF0FAEF3EF0F3EFBD
:107DF2003EF029EC3AF0010E146E010EFDEC3AF061
:107E0200B20E156E7F0E166EA4EC3AF0010E146ED1
:107E1200020EFDEC3AF0F80E156E7E0E166EA4EC14
:107E22003AF00B0E1C6E260E1B6E5E0EE82EFED76F
:107E32001B2EFCD71C2EFAD7070E246E3BEF3FF009
:107E420029EC3AF0010E146E010EFDEC3AF0CA0E66
:107E5200156E7F0E166EA4EC3AF0010E146E020E31
:107E6200FDEC3AF05C0E156E7F0E166EA4EC3AF045
:107E72003BEF3FF024501B6E1C6A1C50000AD8B422
:107E820045EF3FF03BEF3FF01B50010AD8B478EFCB
:107E92003BF0030AD8B4ACEF3BF0010AD8B4B5EF1B
:107EA2003CF0070AD8B4B8EF3DF0010AD8B474EF39
:107EB2003EF0020AD8B421EF3FF03BEF3FF000EF73
:107EC20000F00050726F62616E646F206C656473C3
:107ED2002E2E2E006F6B203F2042544E31203A202E
:107EE20042544E32004254313A205F207C7C204280
:107EF20054323A205F00496E6974207465737420AD
:107F020042757A7A6572004C65647320696E636F9C
:107F120072726563746F7300496E6974207465735D
:107F2200742052656C6179730050757368204254F5
:107F32003020746F20696E69740052656C617973C8
:107F42002066756E633F2E2E2E006F6B20204254EA
:107F52004E31203A2042544E3200546573742063ED
:107F62006F6D706C657461646F00496E6974207422
:107F7200657374206C656473004C65647320636F71
:107F820072726563746F7300426F746F6E657320F3
:107F9200636865636B0042757A7A6572206269650F
:107FA2006E210052656C617973206269656E2100F1
:107FB20042757A7A6572206D616C210052656C613E
:107FC2007973206D616C210046656C696369646137
:107FD2006465730042544E313A203A290042546E8D
:107FE200323A203A290042544E313A205F0042543C
:0E7FF2006E323A205F00425430206F6B000068
:020000040020DA
:08000000FFFFFFFFFFFFFFFF00
:020000040030CA
:0E00000000285E3CFFD185FF0FC00FE00F40CF
:00000001FF
