:0400000090EF35F058
:106A4200000E50EC35F0010E50EC35F012003132F0
:106A5200334134353642373839432A302344D35010
:106A62008F0B6009D36ED350FC0B0209D36E120058
:106A7200016EACA23FEF35F041EF35F03AEF35F061
:106A820001C0ADFF1200010E046E020E6FEC36F073
:106A9200370E056E7F0E066E1BEC37F01200036E8A
:106AA2008394035041EC36F083860B0E026E620E25
:106AB200E82EFED7022EFCD700D083961200000EDD
:106AC2000F015E6F5C915C935C955C9793809382FF
:106AD200938493865C9993985F9596945F91969030
:106AE2008D908A981200046E04500F0B026E0450AF
:106AF200F00B036E838403380F0B41EC36F0838670
:106B02001A0EE82EFED700D08396025041EC36F0E2
:106B120083861A0EE82EFED700D083961200500EFE
:106B2200F66E6A0EF76E000EF86E00EED0F010EE02
:106B320010F00900F5CFEEFFE550E150FAE100EE6A
:106B420060F03B0EEE6AE806FDE15F6A5E6A5D6A2E
:106B52005C6A000EF86E00011AEF3BF014BEBCEF47
:106B620035F0145006E11304D8B0BAEF35F0BCEF9B
:106B720035F0CAEF35F013C015F014C016F0151E2B
:106B8200161E154A162A15C013F016C014F0CEEFC1
:106B920035F013C013F014C014F01200000E116E81
:106BA200000E106EE0EF35F00FC002F0036A0DC068
:106BB20004F00EC005F05AEC37F0104A112A1050BA
:106BC2000B24D96E11500C20DA6EDF500F6E0F506D
:106BD200D8A4EEEF35F0F0EF35F0D5EF35F0120036
:106BE20054C058F055C059F005EF36F052C040F08D
:106BF20053C041F0580E426E000E436E56C044F030
:106C020057C045F0BFEC37F058C0F6FF59C0F7FF48
:106C12000800F5500009D8A411EF36F013EF36F052
:106C2200F7EF35F0000E536E000E526E12009F0EFB
:106C32000001A76F000EA86F9BC0A9F09CC0AAF02C
:106C4200000EAD6F000EAC6F000EB36F000EB26F90
:106C5200A90E526E000E536E9DC054F09EC055F0A8
:106C6200A70E566E000E576EF1EC35F00001AC51D6
:106C72009B25D96EAD519C21DA6E000EDF6E12009B
:106C8200016E01A047EF36F049EF36F04CEF36F0D7
:106C92008C884DEF36F08C9801A252EF36F054EF0B
:106CA20036F057EF36F08C8A58EF36F08C9A01A402
:106CB2005DEF36F05FEF36F062EF36F08C8C63EF0B
:106CC20036F08C9C01A668EF36F06AEF36F06DEF75
:106CD20036F08C8E6EEF36F08C9E1200056E050437
:106CE200D8A476EF36F078EF36F089EF36F004501C
:106CF2007F0F086E08380F0B066E08500F0B076ED9
:106D0200065050EC35F0075050EC35F0A1EF36F05C
:106D1200020E0518D8A490EF36F092EF36F0A1EFEC
:106D220036F00450BF0F086E08380F0B066E08507D
:106D32000F0B076E065050EC35F0075050EC35F053
:106D420012000F0E9516F30E9516000E41EC36F05A
:106D5200340E046EF20EE82EFED7042EFCD7030E7C
:106D620050EC35F00D0E046EFC0EE82EFED7042E0C
:106D7200FCD7030E50EC35F01D0E046E910EE82E7A
:106D8200FED7042EFCD700F0030E50EC35F0020EB5
:106D920050EC35F0020E50EC35F0080E50EC35F0A8
:106DA200000E50EC35F00C0E50EC35F0000E50ECAD
:106DB20035F0060E50EC35F0120017BEE3EF36F058
:106DC200E5EF36F0EBEF36F016C01BF017C01CF003
:106DD200EFEF36F0000E1C6E000E1B6E000E1A6EE8
:106DE200000E196E01EF37F0000E036E200E026ED8
:106DF20012C004F013C005F05AEC37F0194A1A2AEF
:106E02001B50195C1A50800A186E1C50800A1858C0
:106E1200D8A00EEF37F010EF37F0F5EF36F014C0D0
:106E22000BF015C00CF012C00DF013C00EF0CFEC39
:106E320035F01200000E0A6E000E096E3BEF37F0BD
:106E420009500524076E0A500620086E07C0F6FF97
:106E520008C0F7FFF86A070EF76403D00800F55080
:106E620005D0F6CFE9FFF7CFEAFFEF5074EC35F02B
:106E7200094A0A2A09500524076E0A500620086E9C
:106E820007C0F6FF08C0F7FFF86A070EF76403D0E1
:106E92000800F55005D0F6CFE9FFF7CFEAFFEF5033
:106EA2000009D8A457EF37F059EF37F021EF37F048
:106EB200120004500510D8B461EF37F063EF37F0D9
:106EC2006CEF37F004500510D8A46AEF37F06CEF7E
:106ED20037F071EF37F0025039EC35F0BEEF37F092
:106EE20020EE09F00450D9260550DA22DE50DE10D9
:106EF200D8B47EEF37F080EF37F09BEF37F020EE1B
:106F020009F00450D9260550DA2210EE03F004509D
:106F1200E1260550E222DE50E65CE650800A0A6E67
:106F2200DE50800A0A58D8B099EF37F09BEF37F05D
:106F3200BEEF37F020EE03F00450D9260550DA22D6
:106F4200DECF06F0DDCF07F004C0D9FF05C0DAFFBF
:106F5200DECF08F0DDCF09F006500824D96E0750C5
:106F62000920DA6E02C0DFFF20EE03F00450D926BA
:106F72000550DA22DE2A000EDD22120042C0D9FFBD
:106F820043C0DAFFDECFF6FFDDCFF7FF0800F55092
:106F9200250AD8A4CFEF37F0D1EF37F051EF38F010
:106FA20042C0D9FF43C0DAFFDE2A000EDD22000E06
:106FB2000001616F000E606F60C05EF05C685D682A
:106FC20042C0D9FF43C0DAFFDECF50F0DDCF51F02F
:106FD20050C0F6FF51C0F7FF0800F550640AD8B45C
:106FE200F5EF37F0F7EF37F005EF38F050C0F6FF66
:106FF20051C0F7FF0800F550690AD8A403EF38F032
:1070020005EF38F048EF38F044C0D9FF45C0DAFF49
:10701200DFCF46F0020EDE26DFCF47F0000EDD2284
:1070220046C0D9FF47C0DAFFDECF48F0DDCF49F0D6
:10703200000E49BEFF0E4A6E4B6E4C6E4D6E4E6E8A
:107042004F6E010E5024466E000E5120476E42C014
:10705200D9FF43C0DAFF46C0DEFF47C0DDFF40C0B4
:107062001DF041C01EF048C01FF049C020F04AC0C8
:1070720021F04BC022F04CC023F04DC024F04EC092
:1070820025F04FC026F0DCEC39F065EF38F042C055
:10709200D9FF43C0DAFFDE2A000EDD2265EF38F0A9
:1070A20042C0D9FF43C0DAFFDECFF6FFDDCFF7FFE4
:1070B2000800F550026E036A40C004F041C005F0BA
:1070C2005AEC37F048EF38F01200000E126E08BE8C
:1070D2006FEF38F06DEF38F081EF38F0081E071EC1
:1070E200061E051E041E031E021E016C000E022255
:1070F200032204220522062207220822010E126E12
:1071020010BE88EF38F086EF38F098EF38F0101E96
:107112000F1E0E1E0D1E0C1E0B1E0A1E096C000EEB
:107122000A220B220C220D220E220F2210220950BB
:107132000A100B100C100D100E100F101010D8B4F6
:10714200A5EF38F0A7EF38F0EFEF38F0010E116E2F
:10715200B5EF38F0D89009360A360B360C360D36B4
:107162000E360F361036112A10AEBAEF38F0BCEFD9
:1071720038F0ABEF38F00950015C0A5002580B505E
:1071820003580C5004580D5005580E5006580F5015
:10719200075810500858D8A0D1EF38F0D3EF38F084
:1071A200E3EF38F00950015E0A50025A0B50035ABD
:1071B2000C50045A0D50055A0E50065A0F50075AD9
:1071C2001050085AD89010320F320E320D320C3253
:1071D2000B320A320932112EBCEF38F01250D8B4F9
:1071E200F5EF38F0F7EF38F007EF39F0081E071E19
:1071F200061E051E041E031E021E016C000E022244
:1072020003220422052206220722082201C001F0DD
:1072120002C002F003C003F004C004F005C005F090
:1072220006C006F007C007F008C008F01200000E02
:10723200126E10BE21EF39F01FEF39F033EF39F043
:10724200101E0F1E0E1E0D1E0C1E0B1E0A1E096C9A
:10725200000E0A220B220C220D220E220F221022D5
:10726200010E126E08BE3AEF39F038EF39F04CEFEA
:1072720039F0081E071E061E051E041E031E021EEE
:10728200016C000E0222032204220522062207229A
:107292000822010E121A20EE13F0070EDE6AE8062B
:1072A200FDE209500A100B100C100D100E100F10F9
:1072B2001010D8B45FEF39F061EF39F0B3EF39F065
:1072C200010E116E6FEF39F0D89009360A360B367F
:1072D2000C360D360E360F361036112A10AE74EFFC
:1072E20039F076EF39F065EF39F0D890133614366D
:1072F200153616361736183619361A360950015C05
:107302000A5002580B5003580C5004580D5005589F
:107312000E5006580F50075810500858D8A094EF36
:1073220039F096EF39F0A7EF39F00950015E0A50B3
:10733200025A0B50035A0C50045A0D50055A0E5063
:10734200065A0F50075A1050085A1380D89010321C
:107352000F320E320D320C320B320A320932112E3A
:1073620076EF39F01250D8B4B9EF39F0BBEF39F0FB
:10737200CBEF39F01A1E191E181E171E161E151EE7
:10738200141E136C000E1422152216221722182224
:1073920019221A2213C001F014C002F015C003F022
:1073A20016C004F017C005F018C006F019C007F0A7
:1073B2001AC008F012001FC035F020C036F021C0FC
:1073C20037F022C038F023C039F024C03AF025C08B
:1073D2003BF026C03CF03CBEF1EF39F0F4EF39F05F
:1073E200010EF5EF39F0000E3F6E3F50D8B4FCEFBE
:1073F20039F0FEEF39F00EEF3AF03C1E3B1E3A1E1A
:10740200391E381E371E361E356C000E36223722C4
:10741200382239223A223B223C225DBE1BEF3AF04F
:107422005D5006E15C04D8B019EF3AF01BEF3AF078
:1074320021EF3AF0000E326E010E316E25EF3AF076
:107442005CC031F05DC032F060C033F061C034F036
:107452003F50D8B42FEF3AF031EF3AF048EF3AF01C
:107462003306D8A034063F50D8A43AEF3AF03CEFA6
:107472003AF042EF3AF0000E306E2B0E2F6E46EFCE
:107482003AF0000E306E2D0E2F6E2FC03FF0000E20
:107492003E6E1F0E3D6E000E0001866FCDEF3AF07C
:1074A2003D06D8A03E06670E3D24D96E000E3E2052
:1074B200DA6E35C001F036C002F037C003F038C0D2
:1074C20004F039C005F03AC006F03BC007F03CC0FA
:1074D20008F00A0E096E000E0A6E000E0B6E000E08
:1074E2000C6E000E0D6E000E0E6E000E0F6E000E74
:1074F200106E66EC38F001C027F002C028F003C01D
:1075020029F004C02AF005C02BF006C02CF007C0F9
:107512002DF008C02EF027C013F028C014F0AFECF5
:1075220035F01350300FDF6E3106D8A03206330625
:10753200D8A0340635C001F036C002F037C003F0DF
:1075420038C004F039C005F03AC006F03BC007F07D
:107552003CC008F00A0E096E000E0A6E000E0B6E99
:10756200000E0C6E000E0D6E000E0E6E000E0F6EF3
:10757200000E106E18EC39F001C035F002C036F082
:1075820003C037F004C038F005C039F006C03AF045
:1075920007C03BF008C03CF03EBED8EF3AF03E5088
:1075A20008E13D04D8A0D8EF3AF0DAEF3AF0F6EF6E
:1075B2003AF0355036103710381039103A103B1067
:1075C2003C10D8A4E7EF3AF0E9EF3AF051EF3AF085
:1075D20032BEF6EF3AF0325006E13104D8B0F4EFA1
:1075E2003AF0F6EF3AF051EF3AF03F50D8B4FCEFF0
:1075F2003AF0FEEF3AF009EF3BF03D06D8A03E0626
:10760200670E3D24D96E000E3E20DA6E3FC0DFFFCA
:107612001DC012F01EC013F0670E3D24146E000E42
:107622003E20156E33C016F034C017F0DEEC36F093
:10763200120030EC35F060EC35F0A2EC36F021ECC3
:1076420035F0010E0001666F49EF3FF021EC35F095
:10765200010E046E010E6FEC36F0940E056E7F0E75
:10766200066E1BEC37F0010E046E020E6FEC36F064
:10767200ED0E056E7F0E066E1BEC37F0100E5B6E84
:10768200390E5A6E0E0EE82EFED75A2EFCD75B2EFE
:10769200FAD721EC35F0010E046E010E6FEC36F0D4
:1076A200F80E056E7F0E066E1BEC37F0000E000121
:1076B200C96F030EC86F000ECB6F010ECA6F010EA9
:1076C200046E010E6FEC36F0F80E056E7F0E066E3C
:1076D2001BEC37F0CAC004F0020E6FEC36F0B40EA9
:1076E20000019B6F000E9C6F730E9D6F7F0E9E6F4D
:1076F200C8C09FF0C9C0A0F018EC36F0B40E056EF9
:10770200000E066E1BEC37F0030E5B6E080E5A6E0F
:10771200770EE82EFED75A2EFCD75B2EFAD700F052
:1077220021EC35F00001CA4BCB2BCBBFA2EF3BF0D3
:10773200CB5109E1110ECA5DD8A0A2EF3BF0A4EF34
:107742003BF060EF3BF0C807D8A0C907C9BFB4EF50
:107752003BF0C95106E1C805D8B0B2EF3BF0B4EF37
:107762003BF05CEF3BF0020E666F21EC35F0010E50
:10777200046E010E6FEC36F0BC0E056E7F0E066EC7
:107782001BEC37F0010E046E020E6FEC36F0470E62
:10779200056E7F0E066E1BEC37F0100E5B6E390E17
:1077A2005A6E0E0EE82EFED75A2EFCD75B2EFAD753
:1077B20049EF3FF081B0E0EF3BF0E2EF3BF0F4EF56
:1077C2003BF01A0E5A6EF80EE82EFED75A2EFCD750
:1077D20000D081A0EFEF3BF0F1EF3BF0EAEF3BF09E
:1077E200010E0001656F81B2F9EF3BF0FBEF3BF058
:1077F2000DEF3CF01A0E5A6EF80EE82EFED75A2EF6
:10780200FCD700D081A208EF3CF00AEF3CF003EF76
:107812003CF0010E0001646F81B412EF3CF014EFF2
:107822003CF026EF3CF01A0E5A6EF80EE82EFED708
:107832005A2EFCD700D081A221EF3CF023EF3CF07E
:107842001CEF3CF0010E0001636F81B62BEF3CF0A0
:107852002DEF3CF03FEF3CF01A0E5A6EF80EE82E78
:10786200FED75A2EFCD700D081A23AEF3CF03CEF73
:107872003CF035EF3CF0010E0001626F870E9B6F0A
:10788200000E9C6F670E9D6F7F0E9E6F65C09FF00E
:10789200A06B64C0A1F0A26B63C0A3F0A46B62C032
:1078A200A5F0A66B18EC36F021EC35F0010E046E53
:1078B200020E6FEC36F0870E056E000E066E1BECA4
:1078C20037F000016551D8B469EF3CF06BEF3CF042
:1078D20049EF3FF06451D8B471EF3CF073EF3CF0E4
:1078E20049EF3FF06351D8B479EF3CF07BEF3CF0C5
:1078F20049EF3FF06251D8B481EF3CF083EF3CF0A6
:1079020049EF3FF0060E5B6E130E5A6EAE0EE82E76
:10791200FED75A2EFCD75B2EFAD721EC35F0010E9A
:10792200046E010E6FEC36F0760E056E7F0E066E5B
:107932001BEC37F0060E5B6E130E5A6EAE0EE82E7F
:10794200FED75A2EFCD75B2EFAD7030E0001666FC4
:1079520021EC35F0010E046E010E6FEC36F0E30EF1
:10796200056E7E0E066E1BEC37F044EC35F049EFE7
:107972003FF08C68150E5B6E4B0E5A6EBE0EE82EF3
:10798200FED75A2EFCD75B2EFAD700D03AEF3DF045
:10799200000E0001CD6F000ECC6FCDBFDAEF3CF0D0
:1079A200CD5109E1080ECC5DD8A0DAEF3CF0DCEF56
:1079B2003CF0DEEF3CF0FCEF3CF0CCC05AF0010EA4
:1079C2005B6E5A2AE7EF3CF0D8905B365A2EE5EF11
:1079D2003CF05B508C6E030E5B6E8A0E5A6E560E36
:1079E200E82EFED75A2EFCD75B2EFAD70001CC4BDD
:1079F200CD2BCEEF3CF0000ECF6F000ECE6FCFBF7F
:107A02000CEF3DF0CF5109E1080ECE5DD8A00CEF8E
:107A12003DF00EEF3DF010EF3DF02EEF3DF0CEC009
:107A22005AF0000E5B6E5A2A19EF3DF0D8905B3681
:107A32005A2E17EF3DF05B508C6E030E5B6E8A0E72
:107A42005A6E560EE82EFED75A2EFCD75B2EFAD768
:107A52000001CE4BCF2B00EF3DF0020E5B6E040E09
:107A62005A6EBA0EE82EFED75A2EFCD75B2EFAD7E4
:107A720000D081B23FEF3DF041EF3DF0C9EF3CF065
:107A820081B446EF3DF048EF3DF0C9EF3CF081B2E2
:107A92004DEF3DF04FEF3DF084EF3DF01A0E5A6E80
:107AA200F80EE82EFED75A2EFCD700D081A25CEF4A
:107AB2003DF05EEF3DF057EF3DF021EC35F0010E69
:107AC200046E010E6FEC36F0850E056E7F0E066EAB
:107AD2001BEC37F0010E046E020E6FEC36F0160E40
:107AE200056E7F0E066E1BEC37F00B0E5B6E260EDC
:107AF2005A6E5E0EE82EFED75A2EFCD75B2EFAD7B0
:107B0200040E0001666F81B489EF3DF08BEF3DF00A
:107B120049EF3FF01A0E5A6EF80EE82EFED75A2E93
:107B2200FCD700D081A298EF3DF09AEF3DF093EFA1
:107B32003DF021EC35F0010E046E010E6FEC36F0D3
:107B4200050E056E7F0E066E1BEC37F0010E046EFD
:107B5200020E6FEC36F0160E056E7F0E066E1BECF3
:107B620037F00B0E5B6E260E5A6E5E0EE82EFED7B7
:107B72005A2EFCD75B2EFAD7040E0001666F49EF2E
:107B82003FF021EC35F0010E046E010E6FEC36F081
:107B9200270E056E7F0E066E1BEC37F081B0D4EF18
:107BA2003DF0D6EF3DF006EF3EF01A0E5A6EF80E9B
:107BB200E82EFED75A2EFCD700D081A0E3EF3DF08D
:107BC200E5EF3DF0DEEF3DF08DB0EAEF3DF0EDEF99
:107BD2003DF0010EEEEF3DF0000EFF0A5A6E8D50A1
:107BE2005A18FE0B5A188D6E8AB8FAEF3DF0FDEF67
:107BF2003DF0010EFEEF3DF0000EFF0A5A6E5A3ABA
:107C02008A505A18EF0B5A188A6E81B20BEF3EF067
:107C12000DEF3EF042EF3EF01A0E5A6EF80EE82ECD
:107C2200FED75A2EFCD700D081A21AEF3EF01CEFED
:107C32003EF015EF3EF021EC35F0010E046E010E20
:107C42006FEC36F0AF0E056E7F0E066E1BEC37F052
:107C5200010E046E020E6FEC36F0F40E056E7E0E0F
:107C6200066E1BEC37F00B0E5B6E260E5A6E5E0E26
:107C7200E82EFED75A2EFCD75B2EFAD7050E00014E
:107C8200666F81B447EF3EF049EF3EF049EF3FF0B7
:107C92001A0E5A6EF80EE82EFED75A2EFCD700D0D6
:107CA20081A256EF3EF058EF3EF051EF3EF021EC4C
:107CB20035F0010E046E010E6FEC36F0D50E056E36
:107CC2007F0E066E1BEC37F0010E046E020E6FEC97
:107CD20036F0F40E056E7E0E066E1BEC37F00B0EC0
:107CE2005B6E260E5A6E5E0EE82EFED75A2EFCD71B
:107CF2005B2EFAD7050E0001666F49EF3FF021ECCB
:107D020035F0010E046E010E6FEC36F0270E056E93
:107D12007F0E066E1BEC37F081B092EF3EF094EFCF
:107D22003EF0B5EF3EF01A0E5A6EF80EE82EFED770
:107D32005A2EFCD700D081A0A1EF3EF0A3EF3EF077
:107D42009CEF3EF08DB4A8EF3EF0ABEF3EF0010E9B
:107D5200ACEF3EF0000EFF0A5A6E5A465A468D505C
:107D62005A18FB0B5A188D6E81B2BAEF3EF0BCEF77
:107D72003EF0F1EF3EF01A0E5A6EF80EE82EFED7E4
:107D82005A2EFCD700D081A2C9EF3EF0CBEF3EF0D5
:107D9200C4EF3EF021EC35F0010E046E010E6FECE3
:107DA20036F0A20E056E7F0E066E1BEC37F0010E4A
:107DB200046E020E6FEC36F0F40E056E7E0E066E49
:107DC2001BEC37F00B0E5B6E260E5A6E5E0EE82E23
:107DD200FED75A2EFCD75B2EFAD7070E0001666F2C
:107DE20081B4F6EF3EF0F8EF3EF049EF3FF01A0EA5
:107DF2005A6EF80EE82EFED75A2EFCD700D081A27A
:107E020005EF3FF007EF3FF000EF3FF021EC35F0D8
:107E1200010E046E010E6FEC36F0C90E056E7F0E78
:107E2200066E1BEC37F0010E046E020E6FEC36F09C
:107E3200F40E056E7E0E066E1BEC37F00B0E5B6EBB
:107E4200260E5A6E5E0EE82EFED75A2EFCD75B2EF9
:107E5200FAD7070E0001666F49EF3FF021EC35F0CB
:107E6200010E046E010E6FEC36F0E10E056E7F0E10
:107E7200066E1BEC37F0010E046E020E6FEC36F04C
:107E8200570E056E7F0E066E1BEC37F049EF3FF082
:107E9200000166515A6E5B6A5B50000AD8B454EF17
:107EA2003FF049EF3FF05A50010AD8B427EF3BF0B8
:107EB200030AD8B4DBEF3BF0010AD8B4BAEF3CF0C6
:107EC200070AD8B4C2EF3DF0010AD8B480EF3EF001
:107ED200020AD8B42FEF3FF049EF3FF000EF00F075
:107EE2000050726F62616E646F206C6564732E2E37
:107EF2002E00496E697420746573742042757A7A13
:107F02006572004C65647320696E636F727265639B
:107F1200746F7300496E69742074657374205265BE
:107F22006C6179730052656C6179732066756E635A
:107F32003F2E2E2E006F6B202042544E31203A20CD
:107F420042544E32005075736820616E792062751A
:107F520074746F6E005465737420636F6D706C651A
:107F62007461646F0025642C2025642C2025642C08
:107F720020256400416C6C20627574746F6E7320EE
:107F82006F6B004C65647320636F72726563746F0C
:107F920073007374617274696E6720746573740020
:107FA20042757A7A6572206269656E210052656C4B
:107FB200617973206269656E2100427574746F6E17
:107FC2007320746573740042757A7A6572206D61EC
:107FD2006C210052656C617973206D616C210046E1
:107FE200656C6963696461646573006F66207472AD
:0E7FF20061696E657200496E202E2E2E000011
:020000040020DA
:08000000FFFFFFFFFFFFFFFF00
:020000040030CA
:0E00000000285E3CFFD185FF0FC00FE00F40CF
:00000001FF
