:04000000EEEF0CF023
:100800000050726F62616E646F206C6564732E2E8F
:100810002E006F6B203F2042544E31203A2042542C
:100820004E3200496E697420746573742042757A83
:100830007A65720052656C6179732066756E633FEC
:100840002E2E2E005075736820616E7920627574AB
:10085000746F6E005465737420636F6D706C657493
:1008600061646F004C656473204D75782066756E09
:10087000633F0025642C2025642C2025642C202532
:100880006400416C6C20627574746F6E73206F6BC2
:10089000007374617274696E6720746573740052BA
:1008A000656C617973206269656E210042757474AC
:1008B0006F6E7320746573740052656C6179732078
:1008C0006D616C210046656C696369646164657380
:1008D000006F6620747261696E657200496E202E29
:1008E0002E2E000078EC0DF029EC0DF0BFEC0BF093
:1008F00081EC0DF0010E0001666F5BEF07F081ECFB
:100900000DF0010E046E010EFBEC0BF0910E056E66
:10091000080E066E43EC0BF0010E046E020EFBECAB
:100920000BF0D10E056E080E066E43EC0BF0100EA8
:100930005B6E390E5A6E0E0EE82EFED75A2EFCD77D
:100940005B2EFAD781EC0DF0010E046E010EFBEC6C
:100950000BF0DC0E056E080E066E43EC0BF0000E7D
:100960000001C96F030EC86F000ECB6F010ECA6F76
:10097000010E046E010EFBEC0BF0DC0E056E080E92
:10098000066E43EC0BF0CAC004F0020EFBEC0BF059
:10099000B40E00019B6F000E9C6F7F0E9D6F080EC2
:1009A0009E6FC8C09FF0C9C0A0F05CEC0CF0B40E04
:1009B000056E000E066E43EC0BF0030E5B6E080E28
:1009C0005A6E770EE82EFED75A2EFCD75B2EFAD73A
:1009D00000F081EC0DF00001CA4BCB2BCBBFFAEF3E
:1009E00004F0CB5109E1110ECA5DD8A0FAEF04F072
:1009F000FCEF04F0B8EF04F0C807D8A0C907C9BFDE
:100A00000CEF05F0C95106E1C805D8B00AEF05F0B2
:100A10000CEF05F0B4EF04F0020E666F81EC0DF000
:100A2000010E046E010EFBEC0BF0AC0E056E080E11
:100A3000066E43EC0BF0010E046E020EFBEC0BF0A5
:100A4000440E056E080E066E43EC0BF0100E5B6E46
:100A5000390E5A6E0E0EE82EFED75A2EFCD75B2E9C
:100A6000FAD75BEF07F081B038EF05F03AEF05F009
:100A70004CEF05F01A0E5A6EF80EE82EFED75A2EDD
:100A8000FCD700D081A047EF05F049EF05F042EF19
:100A900005F0010E0001656F81B251EF05F053EFD3
:100AA00005F065EF05F01A0E5A6EF80EE82EFED727
:100AB0005A2EFCD700D081A260EF05F062EF05F05E
:100AC0005BEF05F0010E0001646F81B46AEF05F081
:100AD0006CEF05F07EEF05F01A0E5A6EF80EE82E58
:100AE000FED75A2EFCD700D081A279EF05F07BEF1C
:100AF00005F074EF05F0010E0001636F81B683EF1E
:100B000005F085EF05F097EF05F01A0E5A6EF80E16
:100B1000E82EFED75A2EFCD700D081A292EF05F026
:100B200094EF05F08DEF05F0010E0001626F870E66
:100B30009B6F000E9C6F730E9D6F080E9E6F65C0BD
:100B40009FF0A06B64C0A1F0A26B63C0A3F0A46B84
:100B500062C0A5F0A66B5CEC0CF081EC0DF0010E10
:100B6000046E020EFBEC0BF0870E056E000E066E97
:100B700043EC0BF000016551D8B4C1EF05F0C3EFB1
:100B800005F05BEF07F06451D8B4C9EF05F0CBEF87
:100B900005F05BEF07F06351D8B4D1EF05F0D3EF68
:100BA00005F05BEF07F06251D8B4D9EF05F0DBEF49
:100BB00005F05BEF07F0060E5B6E130E5A6EAE0E7D
:100BC000E82EFED75A2EFCD75B2EFAD781EC0DF01B
:100BD000010E046E010EFBEC0BF0820E056E080E8A
:100BE000066E43EC0BF0060E5B6E130E5A6EAE0EE5
:100BF000E82EFED75A2EFCD75B2EFAD7030E000143
:100C0000666F81EC0DF0010E046E010EFBEC0BF033
:100C1000010E056E080E066E43EC0BF061EC0DF054
:100C20005BEF07F08C6881A218EF06F01AEF06F070
:100C300021EF06F081B41FEF06F021EF06F05BEF25
:100C400007F0080E666F81EC0DF0010E046E010EC8
:100C5000FBEC0BF0640E056E080E066E43EC0BF019
:100C600061EC0DF026EF05F08B808D848D828D80F8
:100C7000E4C08CFF8B90060E5A6E300EE82EFED725
:100C80005A2EFCD700D08B808D848D828D80E4C05D
:100C90008CFF8D94060E5A6E300EE82EFED75A2E1B
:100CA000FCD700D08B808D848D828D80E4C08CFF3A
:100CB0008D92060E5A6E300EE82EFED75A2EFCD7B5
:100CC00000D08B808D848D828D80E4C08CFF8D90D0
:100CD000060E5A6E300EE82EFED75A2EFCD700D0E4
:100CE00081A275EF06F077EF06F07EEF06F081B493
:100CF0007CEF06F07EEF06F05BEF07F0040E0001DC
:100D0000666F81EC0DF0010E046E010EFBEC0BF032
:100D1000340E056E080E066E43EC0BF030EF06F055
:100D200081B095EF06F097EF06F0C7EF06F01A0EC8
:100D30005A6EF80EE82EFED75A2EFCD700D081A0AE
:100D4000A4EF06F0A6EF06F09FEF06F08DB0ABEF34
:100D500006F0AEEF06F0010EAFEF06F0000EFF0A50
:100D60005A6E8D505A18FE0B5A188D6E8AB8BBEF0A
:100D700006F0BEEF06F0010EBFEF06F0000EFF0A10
:100D80005A6E5A3A8A505A18EF0B5A188A6E81B224
:100D9000CCEF06F0CEEF06F003EF07F01A0E5A6E16
:100DA000F80EE82EFED75A2EFCD700D081A2DBEF3A
:100DB00006F0DDEF06F0D6EF06F081EC0DF0010E47
:100DC000046E010EFBEC0BF09F0E056E080E066E16
:100DD00043EC0BF0010E046E020EFBEC0BF0230E45
:100DE000056E080E066E43EC0BF00B0E5B6E260EC6
:100DF0005A6E5E0EE82EFED75A2EFCD75B2EFAD71F
:100E0000070E0001666F81B408EF07F00AEF07F0E4
:100E10005BEF07F01A0E5A6EF80EE82EFED75A2E28
:100E2000FCD700D081A217EF07F019EF07F012EFFF
:100E300007F081EC0DF0010E046E010EFBEC0BF0DF
:100E4000B90E056E080E066E43EC0BF0010E046E33
:100E5000020EFBEC0BF0230E056E080E066E43EC43
:100E60000BF00B0E5B6E260E5A6E5E0EE82EFED752
:100E70005A2EFCD75B2EFAD7070E0001666F5BEF88
:100E800007F081EC0DF0010E046E010EFBEC0BF08F
:100E9000C50E056E080E066E43EC0BF0010E046ED7
:100EA000020EFBEC0BF0540E056E080E066E43ECC2
:100EB0000BF05BEF07F0000166515A6E5B6A5B5006
:100EC000000AD8B466EF07F05BEF07F05A50010A4A
:100ED000D8B47FEF04F0030AD8B433EF05F0010A69
:100EE000D8B412EF06F0070AD8B490EF06F0030A60
:100EF000D8B441EF07F00F0AD8B434EF06F05BEF37
:100F000007F000EF00F01FC035F020C036F021C020
:100F100037F022C038F023C039F024C03AF025C0A1
:100F20003BF026C03CF03CBE98EF07F09BEF07F08B
:100F3000010E9CEF07F0000E3F6E3F50D8B4A3EFB8
:100F400007F0A5EF07F0B5EF07F03C1E3B1E3A1E79
:100F5000391E381E371E361E356C000E36223722DB
:100F6000382239223A223B223C225DBEC2EF07F0F2
:100F70005D5006E15C04D8B0C0EF07F0C2EF07F0A7
:100F8000C8EF07F0000E326E010E316ECCEF07F0A5
:100F90005CC031F05DC032F060C033F061C034F04D
:100FA0003F50D8B4D6EF07F0D8EF07F0EFEF07F0D7
:100FB0003306D8A034063F50D8A4E1EF07F0E3EFA2
:100FC00007F0E9EF07F0000E306E2B0E2F6EEDEFFD
:100FD00007F0000E306E2D0E2F6E2FC03FF0000E6A
:100FE0003E6E1F0E3D6E000E0001866F74EF08F01E
:100FF0003D06D8A03E06670E3D24D96E000E3E2069
:10100000DA6E35C001F036C002F037C003F038C0E8
:1010100004F039C005F03AC006F03BC007F03CC010
:1010200008F00A0E096E000E0A6E000E0B6E000E1E
:101030000C6E000E0D6E000E0E6E000E0F6E000E8A
:10104000106E85EC09F001C027F002C028F003C043
:1010500029F004C02AF005C02BF006C02CF007C010
:101060002DF008C02EF027C013F028C014F0CEECED
:101070000CF01350300FDF6E3106D8A03206330665
:10108000D8A0340635C001F036C002F037C003F0F6
:1010900038C004F039C005F03AC006F03BC007F094
:1010A0003CC008F00A0E096E000E0A6E000E0B6EB0
:1010B000000E0C6E000E0D6E000E0E6E000E0F6E0A
:1010C000000E106EC1EC08F001C035F002C036F021
:1010D00003C037F004C038F005C039F006C03AF05C
:1010E00007C03BF008C03CF03EBE7FEF08F03E502A
:1010F00008E13D04D8A07FEF08F081EF08F09DEFF4
:1011000008F0355036103710381039103A103B10AF
:101110003C10D8A48EEF08F090EF08F0F8EF07F03D
:1011200032BE9DEF08F0325006E13104D8B09BEF9B
:1011300008F09DEF08F0F8EF07F03F50D8B4A3EFA8
:1011400008F0A5EF08F0B0EF08F03D06D8A03E0685
:10115000670E3D24D96E000E3E20DA6E3FC0DFFFE1
:101160001DC012F01EC013F0670E3D24146E000E59
:101170003E20156E33C016F034C017F082EC0BF031
:101180001200000E126E10BECAEF08F0C8EF08F091
:10119000DCEF08F0101E0F1E0E1E0D1E0C1E0B1E87
:1011A0000A1E096C000E0A220B220C220D220E22AE
:1011B0000F221022010E126E08BEE3EF08F0E1EFDD
:1011C00008F0F5EF08F0081E071E061E051E041E97
:1011D000031E021E016C000E0222032204220522BD
:1011E000062207220822010E121A20EE13F0070E23
:1011F000DE6AE806FDE209500A100B100C100D1013
:101200000E100F101010D8B408EF09F00AEF09F013
:101210005CEF09F0010E116E18EF09F0D890093655
:101220000A360B360C360D360E360F361036112AAE
:1012300010AE1DEF09F01FEF09F00EEF09F0D89086
:1012400013361436153616361736183619361A363A
:101250000950015C0A5002580B5003580C500458B6
:101260000D5005580E5006580F500758105008588A
:10127000D8A03DEF09F03FEF09F050EF09F0095019
:10128000015E0A50025A0B50035A0C50045A0D507A
:10129000055A0E50065A0F50075A1050085A13801C
:1012A000D89010320F320E320D320C320B320A321D
:1012B0000932112E1FEF09F01250D8B462EF09F075
:1012C00064EF09F074EF09F01A1E191E181E171E9C
:1012D000161E151E141E136C000E14221522162243
:1012E0001722182219221A2213C001F014C002F08A
:1012F00015C003F016C004F017C005F018C006F0C2
:1013000019C007F01AC008F01200000E126E08BED5
:101310008EEF09F08CEF09F0A0EF09F0081E071E10
:10132000061E051E041E031E021E016C000E022274
:10133000032204220522062207220822010E126E31
:1013400010BEA7EF09F0A5EF09F0B7EF09F0101EE6
:101350000F1E0E1E0D1E0C1E0B1E0A1E096C000E0B
:101360000A220B220C220D220E220F2210220950DB
:101370000A100B100C100D100E100F101010D8B416
:10138000C4EF09F0C6EF09F00EEF0AF0010E116E7E
:10139000D4EF09F0D89009360A360B360C360D36E4
:1013A0000E360F361036112A10AED9EF09F0DBEFEA
:1013B00009F0CAEF09F00950015C0A5002580B50BD
:1013C00003580C5004580D5005580E5006580F5035
:1013D000075810500858D8A0F0EF09F0F2EF09F0C4
:1013E00002EF0AF00950015E0A50025A0B50035AEC
:1013F0000C50045A0D50055A0E50065A0F50075AF9
:101400001050085AD89010320F320E320D320C3272
:101410000B320A320932112EDBEF09F01250D8B428
:1014200014EF0AF016EF0AF026EF0AF0081E071E66
:10143000061E051E041E031E021E016C000E022263
:1014400003220422052206220722082201C001F0FD
:1014500002C002F003C003F004C004F005C005F0B0
:1014600006C006F007C007F008C008F0120042C02E
:10147000D9FF43C0DAFFDECFF6FFDDCFF7FF08006C
:10148000F550250AD8A447EF0AF049EF0AF0C9EF52
:101490000AF042C0D9FF43C0DAFFDE2A000EDD2287
:1014A000000E0001616F000E606F60C05EF05C684E
:1014B0005D6842C0D9FF43C0DAFFDECF50F0DDCF18
:1014C00051F050C0F6FF51C0F7FF0800F550640A14
:1014D000D8B46DEF0AF06FEF0AF07DEF0AF050C05C
:1014E000F6FF51C0F7FF0800F550690AD8A47BEF5A
:1014F0000AF07DEF0AF0C0EF0AF044C0D9FF45C002
:10150000DAFFDFCF46F0020EDE26DFCF47F0000E17
:10151000DD2246C0D9FF47C0DAFFDECF48F0DDCF7D
:1015200049F0000E49BEFF0E4A6E4B6E4C6E4D6E7A
:101530004E6E4F6E010E5024466E000E5120476EC7
:1015400042C0D9FF43C0DAFF46C0DEFF47C0DDFF1F
:1015500040C01DF041C01EF048C01FF049C020F03F
:101560004AC021F04BC022F04CC023F04DC024F003
:101570004EC025F04FC026F083EC07F0DDEF0AF0F7
:1015800042C0D9FF43C0DAFFDE2A000EDD22DDEFC4
:101590000AF042C0D9FF43C0DAFFDECFF6FFDDCF4D
:1015A000F7FF0800F550026E036A40C004F041C026
:1015B00005F0DEEC0AF0C0EF0AF01200045005104E
:1015C000D8B4E5EF0AF0E7EF0AF0F0EF0AF00450C4
:1015D0000510D8A4EEEF0AF0F0EF0AF0F5EF0AF0EC
:1015E00002506DEC0DF042EF0BF020EE09F00450CC
:1015F000D9260550DA22DE50DE10D8B402EF0BF007
:1016000004EF0BF01FEF0BF020EE09F00450D92689
:101610000550DA2210EE03F00450E1260550E222D4
:10162000DE50E65CE650800A0A6EDE50800A0A58F8
:10163000D8B01DEF0BF01FEF0BF042EF0BF020EED8
:1016400003F00450D9260550DA22DECF06F0DDCFB4
:1016500007F004C0D9FF05C0DAFFDECF08F0DDCF08
:1016600009F006500824D96E07500920DA6E02C02E
:10167000DFFF20EE03F00450D9260550DA22DE2ADF
:10168000000EDD221200000E0A6E000E096E63EFDE
:101690000BF009500524076E0A500620086E07C09B
:1016A000F6FF08C0F7FFF86A070EF76403D00800DA
:1016B000F55005D0F6CFE9FFF7CFEAFFEF500DEC7C
:1016C0000DF0094A0A2A09500524076E0A5006201F
:1016D000086E07C0F6FF08C0F7FFF86A070EF76448
:1016E00003D00800F55005D0F6CFE9FFF7CFEAFFA9
:1016F000EF500009D8A47FEF0BF081EF0BF049EF1A
:101700000BF0120017BE87EF0BF089EF0BF08FEF95
:101710000BF016C01BF017C01CF093EF0BF0000E7F
:101720001C6E000E1B6E000E1A6E000E196EA5EFD9
:101730000BF0000E036E200E026E12C004F013C0F8
:1017400005F0DEEC0AF0194A1A2A1B50195C1A50EF
:10175000800A186E1C50800A1858D8A0B2EF0BF0FF
:10176000B4EF0BF099EF0BF014C00BF015C00CF0B8
:1017700012C00DF013C00EF0ACEC0CF012000F0E06
:101780009516F30E9516000E2EEC0CF0340E046E2A
:10179000F20EE82EFED7042EFCD7030E44EC0DF01B
:1017A0000D0E046EFC0EE82EFED7042EFCD7030EA1
:1017B00044EC0DF01D0E046E910EE82EFED7042EA3
:1017C000FCD700F0030E44EC0DF0020E44EC0DF0DB
:1017D000020E44EC0DF0080E44EC0DF0000E44EC4B
:1017E0000DF00C0E44EC0DF0000E44EC0DF0060E66
:1017F00044EC0DF01200056E0504D8A402EF0CF0C5
:1018000004EF0CF015EF0CF004507F0F086E083851
:101810000F0B066E08500F0B076E065044EC0DF0D0
:10182000075044EC0DF02DEF0CF0020E0518D8A473
:101830001CEF0CF01EEF0CF02DEF0CF00450BF0F5E
:10184000086E08380F0B066E08500F0B076E065017
:1018500044EC0DF0075044EC0DF01200016E01A0B5
:1018600034EF0CF036EF0CF039EF0CF08C883AEFD7
:101870000CF08C9801A23FEF0CF041EF0CF044EF1C
:101880000CF08C8A45EF0CF08C9A01A44AEF0CF016
:101890004CEF0CF04FEF0CF08C8C50EF0CF08C9C5C
:1018A00001A655EF0CF057EF0CF05AEF0CF08C8EB0
:1018B0005BEF0CF08C9E12009F0E0001A76F000ED4
:1018C000A86F9BC0A9F09CC0AAF0000EAD6F000EDF
:1018D000AC6F000EB36F000EB26FA90E526E000E09
:1018E000536E9DC054F09EC055F0A70E566E000E6C
:1018F000576E85EC0CF00001AC519B25D96EAD51B3
:101900009C21DA6E000EDF6E120054C058F055C0F4
:1019100059F099EF0CF052C040F053C041F0580E0E
:10192000426E000E436E56C044F057C045F037EC8F
:101930000AF058C0F6FF59C0F7FF0800F55000093B
:10194000D8A4A5EF0CF0A7EF0CF08BEF0CF0000E75
:10195000536E000E526E1200000E116E000E106ECD
:10196000BDEF0CF00FC002F0036A0DC004F00EC012
:1019700005F0DEEC0AF0104A112A10500B24D96E43
:1019800011500C20DA6EDF500F6E0F50D8A4CBEF41
:101990000CF0CDEF0CF0B2EF0CF0120014BEDBEF48
:1019A0000CF0145006E11304D8B0D9EF0CF0DBEFC3
:1019B0000CF0E9EF0CF013C015F014C016F0151E72
:1019C000161E154A162A15C013F016C014F0EDEFB6
:1019D0000CF013C013F014C014F01200A80EF66E31
:1019E0001A0EF76E000EF86E00EECCF010EE1AF044
:1019F0000900F5CFEEFFE550E150FAE100EE60F0AE
:101A00003B0EEE6AE806FDE15F6A5E6A5D6A5C6A4B
:101A1000000EF86E000172EF04F0046E04500F0B1C
:101A2000026E0450F00B036E838403380F0B2EEC10
:101A30000CF083861A0EE82EFED700D08396025053
:101A40002EEC0CF083861A0EE82EFED700D083967B
:101A50001200000E0F015E6F5C915C935C955C97C9
:101A600093809382938493865C9993985F959694E0
:101A70005F9196908D908A985F915F935F95969015
:101A80009692969494901200036E839403502EECD9
:101A90000CF083860B0E026E620EE82EFED7022E2D
:101AA000FCD700D0839612003132334134353642B0
:101AB000373839432A302344C0F9A4B0999282F8C8
:101AC0008090010E046E020EFBEC0BF0120E056E00
:101AD000080E066E43EC0BF01200016EACA273EF21
:101AE0000DF075EF0DF06EEF0DF001C0ADFF1200BF
:101AF000D3508F0B6009D36ED350FC0B0209D36E09
:101B00001200000E44EC0DF0010E44EC0DF012003A
:020000040020DA
:08000000FFFFFFFFFFFFFFFF00
:020000040030CA
:0E00000000285E3CFFD185FF0FC00FE00F40CF
:00000001FF
