:04000000EAEF35F0FE
:106A8200AB981200AB881200000E84EC35F0010EB8
:106A920084EC35F01200D3508F0B6009D36ED350C3
:106AA200FC0B0209D36E1200016EACA25BEF35F053
:106AB2005DEF35F056EF35F001C0ADFF1200016E0B
:106AC200ACA266EF35F068EF35F061EF35F001C04A
:106AD200ADFF1200010E046E020EE9EC36F0060E56
:106AE200056E7F0E066EC8EC37F01200313233416C
:106AF20034353642373839432A302344C0F9A4B0FA
:106B0200999282F88090036E83940350BBEC36F026
:106B120083860B0E026E620EE82EFED7022EFCD783
:106B220000D083961200A0EF35F002C0F6FF03C03A
:106B3200F7FF0800F55055EC35F0024A032A02C06F
:106B4200F6FF03C0F7FF0800F5500009D8A4ACEF28
:106B520035F0AEEF35F096EF35F01200046E0450CA
:106B62000F0B026E0450F00B036E838403380F0B7D
:106B7200BBEC36F083861A0EE82EFED700D0839641
:106B82000250BBEC36F083861A0EE82EFED700D0F8
:106B920083961200000E0F015E6F95909592000E83
:106BA2005C6F5C915C935C955C9793809382938419
:106BB20093865C9993985F9596945F9196908D9049
:106BC2008A985F915F935F9596909692969494902F
:106BD2001200EE0EF66E6A0EF76E000EF86E00EE02
:106BE200CDF010EE1AF00900F5CFEEFFE550E150BE
:106BF200FAE100EE60F03C0EEE6AE806FDE15F6A43
:106C02005E6A5D6A5C6A000EF86E000119EF3CF084
:106C12009EAA0EEF36F010EF36F009EF36F0ABB465
:106C220015EF36F017EF36F01EEF36F0ABA21CEF81
:106C320036F01EEF36F025EF36F041EC35F000F07D
:106C420043EC35F027EF36F0AECF01F001501200E1
:106C520014BE36EF36F0145006E11304D8B034EF08
:106C620036F036EF36F044EF36F013C015F014C0AC
:106C720016F0151E161E154A162A15C013F016C058
:106C820014F048EF36F013C013F014C014F01200E1
:106C9200000E116E000E106E5AEF36F00FC002F0A9
:106CA200036A0DC004F00EC005F059EC38F0104A2A
:106CB200112A10500B24D96E11500C20DA6EDF50BD
:106CC2000F6E0F50D8A468EF36F06AEF36F04FEF30
:106CD20036F0120054C058F055C059F07FEF36F02C
:106CE20052C040F053C041F0580E426E000E436E47
:106CF20056C044F057C045F0BEEC38F058C0F6FF1D
:106D020059C0F7FF0800F5500009D8A48BEF36F000
:106D12008DEF36F071EF36F0000E536E000E526EAC
:106D22001200A00E0001A86F000EA96F9CC0AAF06D
:106D32009DC0ABF0000EAE6F000EAD6F000EB46FD3
:106D4200000EB36FAA0E526E000E536E9EC054F028
:106D52009FC055F0A80E566E000E576E6BEC36F0C3
:106D62000001AD519C25D96EAE519D21DA6E000E07
:106D7200DF6E1200016E01A0C1EF36F0C3EF36F0F4
:106D8200C6EF36F08C88C7EF36F08C9801A2CCEFB4
:106D920036F0CEEF36F0D1EF36F08C8AD2EF36F005
:106DA2008C9A01A4D7EF36F0D9EF36F0DCEF36F04B
:106DB2008C8CDDEF36F08C9C01A6E2EF36F0E4EF2E
:106DC20036F0E7EF36F08C8EE8EF36F08C9E12004C
:106DD200056E0504D8A4F0EF36F0F2EF36F003EFBB
:106DE20037F004507F0F086E08380F0B066E0850FC
:106DF2000F0B076E065084EC35F0075084EC35F02B
:106E02001BEF37F0020E0518D8A40AEF37F00CEF8B
:106E120037F01BEF37F00450BF0F086E08380F0B26
:106E2200066E08500F0B076E065084EC35F00750C3
:106E320084EC35F01200949C0F015D9D948E5D9F51
:106E4200240EAC6E900EAB6E080EB86E000E016E84
:106E5200120E026E7A0E036E000E046E0EC005F064
:106E62000FC006F010C007F011C008F007EC38F0B0
:106E7200030E41EF37F0D89004320332023201326E
:106E8200E82E3CEF37F0FF0E0124126EFF0E0220B7
:106E9200136E12C0AFFF1350B06E12000F0E951694
:106EA200F30E9516000EBBEC36F0340E046EF20EA5
:106EB200E82EFED7042EFCD7030E84EC35F00D0E1F
:106EC200046EFC0EE82EFED7042EFCD7030E84ECD3
:106ED20035F01D0E046E910EE82EFED7042EFCD75F
:106EE20000F0030E84EC35F0020E84EC35F0020E55
:106EF20084EC35F0080E84EC35F0000E84EC35F0AD
:106F02000C0E84EC35F0000E84EC35F0060E84ECA9
:106F120035F0120017BE90EF37F092EF37F098EF8E
:106F220037F016C01BF017C01CF09CEF37F0000EB4
:106F32001C6E000E1B6E000E1A6E000E196EAEEF66
:106F420037F0000E036E200E026E12C004F013C062
:106F520005F059EC38F0194A1A2A1B50195C1A50DC
:106F6200800A186E1C50800A1858D8A0BBEF37F060
:106F7200BDEF37F0A2EF37F014C00BF015C00CF0E4
:106F820012C00DF013C00EF049EC36F01200000EE4
:106F92000A6E000E096EE8EF37F009500524076EFD
:106FA2000A500620086E07C0F6FF08C0F7FFF86A0D
:106FB200070EF76403D00800F55005D0F6CFE1FFC5
:106FC200F7CFE2FFE750AFEC35F0094A0A2A095041
:106FD2000524076E0A500620086E07C0F6FF08C097
:106FE200F7FFF86A070EF76403D00800F55005D0E2
:106FF200F6CFE1FFF7CFE2FFE7500009D8A404EF94
:1070020038F006EF38F0CEEF37F01200000E096EBE
:10701200000E0A6E000E0B6E000E0C6E055006106E
:1070220007100810D8B418EF38F01AEF38F050EF04
:1070320038F0010E0D6E24EF38F0D8900536063682
:10704200073608360D2A08AE29EF38F02BEF38F054
:107052001EEF38F0D89009360A360B360C3605503A
:10706200015C065002580750035808500458D8A033
:107072003DEF38F03FEF38F048EF38F00550015E51
:107082000650025A0750035A0850045A0980D890F1
:1070920008320732063205320D2E2BEF38F009C0C6
:1070A20001F00AC002F00BC003F00CC004F01200A1
:1070B20004500510D8B460EF38F062EF38F06BEF8F
:1070C20038F004500510D8A469EF38F06BEF38F0AF
:1070D20070EF38F0025060EC35F0BDEF38F020EE82
:1070E20009F00450D9260550DA22DE50DE10D8B459
:1070F2007DEF38F07FEF38F09AEF38F020EE09F0AC
:107102000450D9260550DA2210EE03F00450E1268D
:107112000550E222DE50E65CE650800A0A6EDE503E
:10712200800A0A58D8B098EF38F09AEF38F0BDEFDD
:1071320038F020EE03F00450D9260550DA22DECFD3
:1071420006F0DDCF07F004C0D9FF05C0DAFFDECFBD
:1071520008F0DDCF09F006500824D96E0750092047
:10716200DA6E02C0DFFF20EE03F00450D92605508C
:10717200DA22DE2A000EDD22120042C0D9FF43C00D
:10718200DAFFDECFF6FFDDCFF7FF0800F550250A64
:10719200D8A4CEEF38F0D0EF38F050EF39F042C03B
:1071A200D9FF43C0DAFFDE2A000EDD22000E000105
:1071B200616F000E606F60C05EF05C685D6842C027
:1071C200D9FF43C0DAFFDECF50F0DDCF51F050C01F
:1071D200F6FF51C0F7FF0800F550640AD8B4F4EF87
:1071E20038F0F6EF38F004EF39F050C0F6FF51C036
:1071F200F7FF0800F550690AD8A402EF39F004EF4E
:1072020039F047EF39F044C0D9FF45C0DAFFDFCF8C
:1072120046F0020EDE26DFCF47F0000EDD2246C02A
:10722200D9FF47C0DAFFDECF48F0DDCF49F0000ECC
:1072320049BEFF0E4A6E4B6E4C6E4D6E4E6E4F6ED9
:10724200010E5024466E000E5120476E42C0D9FFF7
:1072520043C0DAFF46C0DEFF47C0DDFF40C01DF07D
:1072620041C01EF048C01FF049C020F04AC021F0C2
:107272004BC022F04CC023F04DC024F04EC025F08C
:107282004FC026F0DBEC3AF064EF39F042C0D9FF90
:1072920043C0DAFFDE2A000EDD2264EF39F042C07D
:1072A200D9FF43C0DAFFDECFF6FFDDCFF7FF0800DC
:1072B200F550026E036A40C004F041C005F059EC7B
:1072C20038F047EF39F01200000E126E08BE6EEF72
:1072D20039F06CEF39F080EF39F0081E071E061EF8
:1072E200051E041E031E021E016C000E0222032252
:1072F20004220522062207220822010E126E10BE67
:1073020087EF39F085EF39F097EF39F0101E0F1E35
:107312000E1E0D1E0C1E0B1E0A1E096C000E0A22EA
:107322000B220C220D220E220F22102209500A10CB
:107332000B100C100D100E100F101010D8B4A4EF7B
:1073420039F0A6EF39F0EEEF39F0010E116EB4EF1D
:1073520039F0D89009360A360B360C360D360E3611
:107362000F361036112A10AEB9EF39F0BBEF39F0F3
:10737200AAEF39F00950015C0A5002580B50035829
:107382000C5004580D5005580E5006580F5007580F
:1073920010500858D8A0D0EF39F0D2EF39F0E2EF10
:1073A20039F00950015E0A50025A0B50035A0C5030
:1073B200045A0D50055A0E50065A0F50075A1050D3
:1073C200085AD89010320F320E320D320C320B3274
:1073D2000A320932112EBBEF39F01250D8B4F4EF51
:1073E20039F0F6EF39F006EF3AF0081E071E061ED6
:1073F200051E041E031E021E016C000E0222032241
:107402000422052206220722082201C001F002C03E
:1074120002F003C003F004C004F005C005F006C08A
:1074220006F007C007F008C008F01200000E126E46
:1074320010BE20EF3AF01EEF3AF032EF3AF0101E93
:107442000F1E0E1E0D1E0C1E0B1E0A1E096C000EB8
:107452000A220B220C220D220E220F221022010ED2
:10746200126E08BE39EF3AF037EF3AF04BEF3AF0CE
:10747200081E071E061E051E041E031E021E016CA8
:10748200000E0222032204220522062207220822DB
:10749200010E121A20EE13F0070EDE6AE806FDE274
:1074A20009500A100B100C100D100E100F101010B6
:1074B200D8B45EEF3AF060EF3AF0B2EF3AF0010E74
:1074C200116E6EEF3AF0D89009360A360B360C364A
:1074D2000D360E360F361036112A10AE73EF3AF013
:1074E20075EF3AF064EF3AF0D89013361436153649
:1074F20016361736183619361A360950015C0A50F4
:1075020002580B5003580C5004580D5005580E5099
:1075120006580F50075810500858D8A093EF3AF069
:1075220095EF3AF0A6EF3AF00950015E0A50025A7E
:107532000B50035A0C50045A0D50055A0E50065A5D
:107542000F50075A1050085A1380D89010320F3239
:107552000E320D320C320B320A320932112E75EF15
:107562003AF01250D8B4B8EF3AF0BAEF3AF0CAEFA4
:107572003AF01A1E191E181E171E161E151E141E6C
:10758200136C000E14221522162217221822192219
:107592001A2213C001F014C002F015C003F016C085
:1075A20004F017C005F018C006F019C007F01AC0A1
:1075B20008F012001FC035F020C036F021C037F0AD
:1075C20022C038F023C039F024C03AF025C03BF085
:1075D20026C03CF03CBEF0EF3AF0F3EF3AF0010E79
:1075E200F4EF3AF0000E3F6E3F50D8B4FBEF3AF0A2
:1075F200FDEF3AF00DEF3BF03C1E3B1E3A1E391EEA
:10760200381E371E361E356C000E362237223822BF
:1076120039223A223B223C225DBE1AEF3BF05D50FA
:1076220006E15C04D8B018EF3BF01AEF3BF020EF14
:107632003BF0000E326E010E316E24EF3BF05CC067
:1076420031F05DC032F060C033F061C034F03F50C1
:10765200D8B42EEF3BF030EF3BF047EF3BF0330670
:10766200D8A034063F50D8A439EF3BF03BEF3BF0B3
:1076720041EF3BF0000E306E2B0E2F6E45EF3BF0CC
:10768200000E306E2D0E2F6E2FC03FF0000E3E6E9C
:107692001F0E3D6E000E0001876FCCEF3BF03D06E2
:1076A200D8A03E06680E3D24D96E000E3E20DA6E4A
:1076B20035C001F036C002F037C003F038C004F024
:1076C20039C005F03AC006F03BC007F03CC008F0F4
:1076D2000A0E096E000E0A6E000E0B6E000E0C6E84
:1076E200000E0D6E000E0E6E000E0F6E000E106E6E
:1076F20065EC39F001C027F002C028F003C029F080
:1077020004C02AF005C02BF006C02CF007C02DF0F3
:1077120008C02EF027C013F028C014F029EC36F070
:107722001350300FDF6E3106D8A032063306D8A0D0
:10773200340635C001F036C002F037C003F038C05D
:1077420004F039C005F03AC006F03BC007F03CC077
:1077520008F00A0E096E000E0A6E000E0B6E000E85
:107762000C6E000E0D6E000E0E6E000E0F6E000EF1
:10777200106E17EC3AF001C035F002C036F003C0CB
:1077820037F004C038F005C039F006C03AF007C03F
:107792003BF008C03CF03EBED7EF3BF03E5008E164
:1077A2003D04D8A0D7EF3BF0D9EF3BF0F5EF3BF02B
:1077B200355036103710381039103A103B103C1043
:1077C200D8A4E6EF3BF0E8EF3BF050EF3BF032BEDF
:1077D200F5EF3BF0325006E13104D8B0F3EF3BF065
:1077E200F5EF3BF050EF3BF03F50D8B4FBEF3BF0EE
:1077F200FDEF3BF008EF3CF03D06D8A03E06680ED8
:107802003D24D96E000E3E20DA6E3FC0DFFF1DC060
:1078120012F01EC013F0680E3D24146E000E3E20BE
:10782200156E33C016F034C017F08BEC37F012002F
:107832004CEC35F0CBEC35F04FEC37F045EC35F055
:10784200800E0E6E250E0F6E000E106E000E116E63
:107852001CEC37F0010E0001676F4EEF3FF045EC74
:1078620035F0010E046E010EE9EC36F0940E056E51
:107872007F0E066EC8EC37F0010E046E020EE9ECC4
:1078820036F0ED0E056E7F0E066EC8EC37F0100E68
:107892005B6E390E5A6E0E0EE82EFED75A2EFCD7AC
:1078A2005B2EFAD745EC35F0010E046E010EE9ECC1
:1078B20036F0F80E056E7F0E066EC8EC37F0000E3D
:1078C2000001CA6F030EC96F000ECC6F010ECB6FA1
:1078D200010E046E010EE9EC36F0F80E056E7F0E15
:1078E200066EC8EC37F0CBC004F0020EE9EC36F0BD
:1078F200B50E00019C6F000E9D6F820E9E6F7F0E73
:107902009F6FC9C0A0F0CAC0A1F092EC36F0B50ECC
:10791200056E000E066EC8EC37F0020E5B6E040EAA
:107922005A6EBA0EE82EFED75A2EFCD75B2EFAD725
:1079320000D045EC35F00001CB4BCC2BCCBFABEFEC
:107942003CF0CC5109E1110ECB5DD8A0ABEF3CF07D
:10795200ADEF3CF069EF3CF0C907D8A0CA07CABF37
:10796200BDEF3CF0CA5106E1C905D8B0BBEF3CF00F
:10797200BDEF3CF065EF3CF0020E676F45EC35F071
:10798200010E046E010EE9EC36F0BC0E056E7F0EA0
:10799200066EC8EC37F0010E046E020EE9EC36F00A
:1079A200470E056E7F0E066EC8EC37F0100E5B6E4A
:1079B200390E5A6E0E0EE82EFED75A2EFCD75B2ECB
:1079C200FAD74EEF3FF081B0E9EF3CF0EBEF3CF03D
:1079D200FDEF3CF01A0E5A6EF80EE82EFED75A2E24
:1079E200FCD700D081A0F8EF3CF0FAEF3CF0F3EFC7
:1079F2003CF0010E0001666F81B202EF3DF004EF30
:107A02003DF016EF3DF01A0E5A6EF80EE82EFED734
:107A12005A2EFCD700D081A211EF3DF013EF3DF0BA
:107A22000CEF3DF0010E0001656F81B41BEF3DF0DC
:107A32001DEF3DF02FEF3DF01A0E5A6EF80EE82EB4
:107A4200FED75A2EFCD700D081A22AEF3DF02CEFB0
:107A52003DF025EF3DF0010E0001646F81B634EF79
:107A62003DF036EF3DF048EF3DF01A0E5A6EF80E3B
:107A7200E82EFED75A2EFCD700D081A243EF3DF06C
:107A820045EF3DF03EEF3DF0010E0001636F880EC1
:107A92009C6F000E9D6F760E9E6F7F0E9F6F66C06D
:107AA200A0F0A16B65C0A2F0A36B64C0A4F0A56BAB
:107AB20063C0A6F0A76B92EC36F045EC35F0010EF0
:107AC200046E020EE9EC36F0880E056E000E066EAC
:107AD200C8EC37F000016651D8B472EF3DF074EF94
:107AE2003DF04EEF3FF06551D8B47AEF3DF07CEFB8
:107AF2003DF04EEF3FF06451D8B482EF3DF084EF99
:107B02003DF04EEF3FF06351D8B48AEF3DF08CEF79
:107B12003DF04EEF3FF0060E5B6E130E5A6EAE0E48
:107B2200E82EFED75A2EFCD75B2EFAD745EC35F05D
:107B3200010E046E010EE9EC36F0850E056E7F0E25
:107B4200066EC8EC37F0060E5B6E130E5A6EAE0E62
:107B5200E82EFED75A2EFCD75B2EFAD7030E000171
:107B6200676F45EC35F0010E046E010EE9EC36F05C
:107B7200F50E056E7E0E066EC8EC37F06BEC35F036
:107B82004EEF3FF08C6881A2C9EF3DF0CBEF3DF0A4
:107B9200D2EF3DF081B4D0EF3DF0D2EF3DF04EEFA9
:107BA2003FF0080E676F45EC35F0010E046E010ED2
:107BB200E9EC36F0670E056E7F0E066EC8EC37F004
:107BC2006BEC35F0D7EF3CF08B808D848D828D800D
:107BD200E6C08CFF8B90060E5A6E300EE82EFED752
:107BE2005A2EFCD700D08B808D848D828D80E5C08B
:107BF2008CFF8D94060E5A6E300EE82EFED75A2E4A
:107C0200FCD700D08B808D848D828D80E4C08CFF68
:107C12008D92060E5A6E300EE82EFED75A2EFCD7E3
:107C220000D08B808D848D828D80E3C08CFF8D90FF
:107C3200060E5A6E300EE82EFED75A2EFCD700D012
:107C420081A226EF3EF028EF3EF02FEF3EF081B406
:107C52002DEF3EF02FEF3EF04EEF3FF0040E00010D
:107C6200676F45EC35F0010E046E010EE9EC36F05B
:107C7200170E056E7F0E066EC8EC37F0E1EF3DF091
:107C820081B046EF3EF048EF3EF078EF3EF01A0E3C
:107C92005A6EF80EE82EFED75A2EFCD700D081A0DD
:107CA20055EF3EF057EF3EF050EF3EF08DB05CEFF7
:107CB2003EF05FEF3EF0010E60EF3EF0000EFF0A75
:107CC2005A6E8D505A18FE0B5A188D6E8AB86CEF88
:107CD2003EF06FEF3EF0010E70EF3EF0000EFF0A35
:107CE2005A6E5A3A8A505A18EF0B5A188A6E81B253
:107CF2007DEF3EF07FEF3EF0B4EF3EF01A0E5A6E8B
:107D0200F80EE82EFED75A2EFCD700D081A28CEFB7
:107D12003EF08EEF3EF087EF3EF045EC35F0010E7F
:107D2200046E010EE9EC36F0AF0E056E7F0E066EA4
:107D3200C8EC37F0010E046E020EE9EC36F0370E95
:107D4200056E7F0E066EC8EC37F00B0E5B6E260ECC
:107D52005A6E5E0EE82EFED75A2EFCD75B2EFAD74D
:107D6200090E0001676F81B4B9EF3EF0BBEF3EF040
:107D72004EEF3FF01A0E5A6EF80EE82EFED75A2E2C
:107D8200FCD700D081A2C8EF3EF0CAEF3EF0C3EFAD
:107D92003EF045EC35F0010E046E010EE9EC36F0D2
:107DA200D50E056E7F0E066EC8EC37F0010E046E1E
:107DB200020EE9EC36F0370E056E7F0E066EC8EC49
:107DC20037F00B0E5B6E260E5A6E5E0EE82EFED755
:107DD2005A2EFCD75B2EFAD7090E0001676F4EEFC1
:107DE2003FF009EC36F00001626F410E6219D8A42F
:107DF200FDEF3EF0FFEF3EF009EF3FF08C688D841F
:107E0200C90E026E7F0E036E94EC35F01BEF3FF04D
:107E1200420E6219D8A410EF3FF012EF3FF01BEFB1
:107E22003FF0000E8C6E8D94A20E026E7F0E036EDA
:107E320094EC35F081B420EF3FF022EF3FF04EEFAB
:107E42003FF0070E0001676F45EC35F0010E046E3E
:107E5200010EE9EC36F0270E056E7F0E066EC8ECB9
:107E620037F0E1EF3DF045EC35F0010E046E010E06
:107E7200E9EC36F0E10E056E7F0E066EC8EC37F0C7
:107E8200010E046E020EE9EC36F0570E056E7F0EFF
:107E9200066EC8EC37F04EEF3FF0000167515A6EA4
:107EA2005B6A5B50000AD8B459EF3FF04EEF3FF0E7
:107EB2005A50010AD8B430EF3CF0030AD8B4E4EFC8
:107EC2003CF0010AD8B4C3EF3DF0070AD8B441EF41
:107ED2003EF0030AD8B434EF3FF00F0AD8B4E5EF0E
:107EE2003DF0010AD8B4F2EF3EF04EEF3FF000EF62
:107EF20000F00050726F62616E646F206C65647393
:107F02002E2E2E006F6B203F2042544E31203A20FD
:107F120042544E320052656C6179732066756E630D
:107F22003F2E2E2E0055534152542046494E49535E
:107F3200482E2E2E00496E697420544553545F55C5
:107F420053415254005075736820616E79206275F6
:107F520074746F6E005465737420636F6D706C651A
:107F62007461646F004C656473204D75782066758A
:107F72006E633F0025642C2025642C2025642C2070
:107F8200256400416C6C20627574746F6E73206F8F
:107F92006B007374617274696E6720746573740028
:107FA2004C45442031204F4646200D0A0052656C54
:107FB200617973206269656E2100427574746F6E17
:107FC200732074657374004C45442031204F4E2059
:107FD2000D0A0052656C617973206D616C21004657
:107FE200656C6963696461646573006F66207472AD
:0E7FF20061696E657200496E202E2E2E000011
:020000040020DA
:08000000FFFFFFFFFFFFFFFF00
:020000040030CA
:0E00000000285E3CFFD185FF0FC00FE00F40CF
:00000001FF
